{
    "_format": "hh-sol-artifact-1",
    "contractName": "EventTickets",
    "sourceName": "contracts/EventTickets.sol",
    "abi": [
        {
            "inputs": [],
            "stateMutability": "nonpayable",
            "type": "constructor"
        },
        {
            "anonymous": false,
            "inputs": [
                {
                    "indexed": true,
                    "internalType": "address",
                    "name": "owner",
                    "type": "address"
                },
                {
                    "indexed": true,
                    "internalType": "address",
                    "name": "approved",
                    "type": "address"
                },
                {
                    "indexed": true,
                    "internalType": "uint256",
                    "name": "tokenId",
                    "type": "uint256"
                }
            ],
            "name": "Approval",
            "type": "event"
        },
        {
            "anonymous": false,
            "inputs": [
                {
                    "indexed": true,
                    "internalType": "address",
                    "name": "owner",
                    "type": "address"
                },
                {
                    "indexed": true,
                    "internalType": "address",
                    "name": "operator",
                    "type": "address"
                },
                {
                    "indexed": false,
                    "internalType": "bool",
                    "name": "approved",
                    "type": "bool"
                }
            ],
            "name": "ApprovalForAll",
            "type": "event"
        },
        {
            "anonymous": false,
            "inputs": [
                {
                    "indexed": true,
                    "internalType": "address",
                    "name": "previousOwner",
                    "type": "address"
                },
                {
                    "indexed": true,
                    "internalType": "address",
                    "name": "newOwner",
                    "type": "address"
                }
            ],
            "name": "OwnershipTransferred",
            "type": "event"
        },
        {
            "anonymous": false,
            "inputs": [
                {
                    "indexed": true,
                    "internalType": "uint256",
                    "name": "tokenId",
                    "type": "uint256"
                },
                {
                    "indexed": false,
                    "internalType": "address",
                    "name": "recipient",
                    "type": "address"
                },
                {
                    "indexed": false,
                    "internalType": "string",
                    "name": "eventName",
                    "type": "string"
                }
            ],
            "name": "TicketCreated",
            "type": "event"
        },
        {
            "anonymous": false,
            "inputs": [
                {
                    "indexed": true,
                    "internalType": "uint256",
                    "name": "tokenId",
                    "type": "uint256"
                },
                {
                    "indexed": false,
                    "internalType": "address",
                    "name": "owner",
                    "type": "address"
                }
            ],
            "name": "TicketUsed",
            "type": "event"
        },
        {
            "anonymous": false,
            "inputs": [
                {
                    "indexed": true,
                    "internalType": "address",
                    "name": "from",
                    "type": "address"
                },
                {
                    "indexed": true,
                    "internalType": "address",
                    "name": "to",
                    "type": "address"
                },
                {
                    "indexed": true,
                    "internalType": "uint256",
                    "name": "tokenId",
                    "type": "uint256"
                }
            ],
            "name": "Transfer",
            "type": "event"
        },
        {
            "inputs": [
                {
                    "internalType": "address",
                    "name": "to",
                    "type": "address"
                },
                {
                    "internalType": "uint256",
                    "name": "tokenId",
                    "type": "uint256"
                }
            ],
            "name": "approve",
            "outputs": [],
            "stateMutability": "nonpayable",
            "type": "function"
        },
        {
            "inputs": [
                {
                    "internalType": "address",
                    "name": "owner",
                    "type": "address"
                }
            ],
            "name": "balanceOf",
            "outputs": [
                {
                    "internalType": "uint256",
                    "name": "",
                    "type": "uint256"
                }
            ],
            "stateMutability": "view",
            "type": "function"
        },
        {
            "inputs": [
                {
                    "internalType": "address",
                    "name": "recipient",
                    "type": "address"
                },
                {
                    "internalType": "string",
                    "name": "eventName",
                    "type": "string"
                },
                {
                    "internalType": "uint256",
                    "name": "eventDate",
                    "type": "uint256"
                },
                {
                    "internalType": "uint256",
                    "name": "price",
                    "type": "uint256"
                }
            ],
            "name": "createTicket",
            "outputs": [
                {
                    "internalType": "uint256",
                    "name": "",
                    "type": "uint256"
                }
            ],
            "stateMutability": "nonpayable",
            "type": "function"
        },
        {
            "inputs": [
                {
                    "internalType": "uint256",
                    "name": "tokenId",
                    "type": "uint256"
                }
            ],
            "name": "getApproved",
            "outputs": [
                {
                    "internalType": "address",
                    "name": "",
                    "type": "address"
                }
            ],
            "stateMutability": "view",
            "type": "function"
        },
        {
            "inputs": [
                {
                    "internalType": "uint256",
                    "name": "tokenId",
                    "type": "uint256"
                }
            ],
            "name": "getTicket",
            "outputs": [
                {
                    "components": [
                        {
                            "internalType": "string",
                            "name": "eventName",
                            "type": "string"
                        },
                        {
                            "internalType": "uint256",
                            "name": "eventDate",
                            "type": "uint256"
                        },
                        {
                            "internalType": "bool",
                            "name": "isUsed",
                            "type": "bool"
                        },
                        {
                            "internalType": "uint256",
                            "name": "price",
                            "type": "uint256"
                        }
                    ],
                    "internalType": "struct EventTickets.Ticket",
                    "name": "",
                    "type": "tuple"
                }
            ],
            "stateMutability": "view",
            "type": "function"
        },
        {
            "inputs": [
                {
                    "internalType": "address",
                    "name": "owner",
                    "type": "address"
                },
                {
                    "internalType": "address",
                    "name": "operator",
                    "type": "address"
                }
            ],
            "name": "isApprovedForAll",
            "outputs": [
                {
                    "internalType": "bool",
                    "name": "",
                    "type": "bool"
                }
            ],
            "stateMutability": "view",
            "type": "function"
        },
        {
            "inputs": [],
            "name": "name",
            "outputs": [
                {
                    "internalType": "string",
                    "name": "",
                    "type": "string"
                }
            ],
            "stateMutability": "view",
            "type": "function"
        },
        {
            "inputs": [],
            "name": "owner",
            "outputs": [
                {
                    "internalType": "address",
                    "name": "",
                    "type": "address"
                }
            ],
            "stateMutability": "view",
            "type": "function"
        },
        {
            "inputs": [
                {
                    "internalType": "uint256",
                    "name": "tokenId",
                    "type": "uint256"
                }
            ],
            "name": "ownerOf",
            "outputs": [
                {
                    "internalType": "address",
                    "name": "",
                    "type": "address"
                }
            ],
            "stateMutability": "view",
            "type": "function"
        },
        {
            "inputs": [],
            "name": "renounceOwnership",
            "outputs": [],
            "stateMutability": "nonpayable",
            "type": "function"
        },
        {
            "inputs": [
                {
                    "internalType": "address",
                    "name": "from",
                    "type": "address"
                },
                {
                    "internalType": "address",
                    "name": "to",
                    "type": "address"
                },
                {
                    "internalType": "uint256",
                    "name": "tokenId",
                    "type": "uint256"
                }
            ],
            "name": "safeTransferFrom",
            "outputs": [],
            "stateMutability": "nonpayable",
            "type": "function"
        },
        {
            "inputs": [
                {
                    "internalType": "address",
                    "name": "from",
                    "type": "address"
                },
                {
                    "internalType": "address",
                    "name": "to",
                    "type": "address"
                },
                {
                    "internalType": "uint256",
                    "name": "tokenId",
                    "type": "uint256"
                },
                {
                    "internalType": "bytes",
                    "name": "data",
                    "type": "bytes"
                }
            ],
            "name": "safeTransferFrom",
            "outputs": [],
            "stateMutability": "nonpayable",
            "type": "function"
        },
        {
            "inputs": [
                {
                    "internalType": "address",
                    "name": "operator",
                    "type": "address"
                },
                {
                    "internalType": "bool",
                    "name": "approved",
                    "type": "bool"
                }
            ],
            "name": "setApprovalForAll",
            "outputs": [],
            "stateMutability": "nonpayable",
            "type": "function"
        },
        {
            "inputs": [
                {
                    "internalType": "bytes4",
                    "name": "interfaceId",
                    "type": "bytes4"
                }
            ],
            "name": "supportsInterface",
            "outputs": [
                {
                    "internalType": "bool",
                    "name": "",
                    "type": "bool"
                }
            ],
            "stateMutability": "view",
            "type": "function"
        },
        {
            "inputs": [],
            "name": "symbol",
            "outputs": [
                {
                    "internalType": "string",
                    "name": "",
                    "type": "string"
                }
            ],
            "stateMutability": "view",
            "type": "function"
        },
        {
            "inputs": [
                {
                    "internalType": "uint256",
                    "name": "",
                    "type": "uint256"
                }
            ],
            "name": "tickets",
            "outputs": [
                {
                    "internalType": "string",
                    "name": "eventName",
                    "type": "string"
                },
                {
                    "internalType": "uint256",
                    "name": "eventDate",
                    "type": "uint256"
                },
                {
                    "internalType": "bool",
                    "name": "isUsed",
                    "type": "bool"
                },
                {
                    "internalType": "uint256",
                    "name": "price",
                    "type": "uint256"
                }
            ],
            "stateMutability": "view",
            "type": "function"
        },
        {
            "inputs": [
                {
                    "internalType": "uint256",
                    "name": "tokenId",
                    "type": "uint256"
                }
            ],
            "name": "tokenURI",
            "outputs": [
                {
                    "internalType": "string",
                    "name": "",
                    "type": "string"
                }
            ],
            "stateMutability": "view",
            "type": "function"
        },
        {
            "inputs": [
                {
                    "internalType": "address",
                    "name": "from",
                    "type": "address"
                },
                {
                    "internalType": "address",
                    "name": "to",
                    "type": "address"
                },
                {
                    "internalType": "uint256",
                    "name": "tokenId",
                    "type": "uint256"
                }
            ],
            "name": "transferFrom",
            "outputs": [],
            "stateMutability": "nonpayable",
            "type": "function"
        },
        {
            "inputs": [
                {
                    "internalType": "address",
                    "name": "newOwner",
                    "type": "address"
                }
            ],
            "name": "transferOwnership",
            "outputs": [],
            "stateMutability": "nonpayable",
            "type": "function"
        },
        {
            "inputs": [
                {
                    "internalType": "uint256",
                    "name": "tokenId",
                    "type": "uint256"
                }
            ],
            "name": "useTicket",
            "outputs": [],
            "stateMutability": "nonpayable",
            "type": "function"
        }
    ],
    "bytecode": "0x608060405234801561001057600080fd5b506040518060400160405280600b81526020017f4576656e745469636b65740000000000000000000000000000000000000000008152506040518060400160405280600381526020017f5449580000000000000000000000000000000000000000000000000000000000815250816000908161008c91906103de565b50806001908161009c91906103de565b5050506100bb6100b06100c060201b60201c565b6100c860201b60201c565b6104b0565b600033905090565b6000600660009054906101000a900473ffffffffffffffffffffffffffffffffffffffff16905081600660006101000a81548173ffffffffffffffffffffffffffffffffffffffff021916908373ffffffffffffffffffffffffffffffffffffffff1602179055508173ffffffffffffffffffffffffffffffffffffffff168173ffffffffffffffffffffffffffffffffffffffff167f8be0079c531659141344cd1fd0a4f28419497f9722a3daafe3b4186f6b6457e060405160405180910390a35050565b600081519050919050565b7f4e487b7100000000000000000000000000000000000000000000000000000000600052604160045260246000fd5b7f4e487b7100000000000000000000000000000000000000000000000000000000600052602260045260246000fd5b6000600282049050600182168061020f57607f821691505b602082108103610222576102216101c8565b5b50919050565b60008190508160005260206000209050919050565b60006020601f8301049050919050565b600082821b905092915050565b60006008830261028a7fffffffffffffffffffffffffffffffffffffffffffffffffffffffffffffffff8261024d565b610294868361024d565b95508019841693508086168417925050509392505050565b6000819050919050565b6000819050919050565b60006102db6102d66102d1846102ac565b6102b6565b6102ac565b9050919050565b6000819050919050565b6102f5836102c0565b610309610301826102e2565b84845461025a565b825550505050565b600090565b61031e610311565b6103298184846102ec565b505050565b5b8181101561034d57610342600082610316565b60018101905061032f565b5050565b601f8211156103925761036381610228565b61036c8461023d565b8101602085101561037b578190505b61038f6103878561023d565b83018261032e565b50505b505050565b600082821c905092915050565b60006103b560001984600802610397565b1980831691505092915050565b60006103ce83836103a4565b9150826002028217905092915050565b6103e78261018e565b67ffffffffffffffff811115610400576103ff610199565b5b61040a82546101f7565b610415828285610351565b600060209050601f8311600181146104485760008415610436578287015190505b61044085826103c2565b8655506104a8565b601f19841661045686610228565b60005b8281101561047e57848901518255600182019150602085019450602081019050610459565b8683101561049b5784890151610497601f8916826103a4565b8355505b6001600288020188555050505b505050505050565b61333a806104bf6000396000f3fe608060405234801561001057600080fd5b506004361061012c5760003560e01c806370a08231116100ad578063a22cb46511610071578063a22cb46514610358578063b88d4fde14610374578063c87b56dd14610390578063e985e9c5146103c0578063f2fde38b146103f05761012c565b806370a08231146102b2578063715018a6146102e25780637dc379fa146102ec5780638da5cb5b1461031c57806395d89b411461033a5761012c565b806326606448116100f457806326606448146101e7578063317d49d21461020357806342842e0e1461023357806350b447121461024f5780636352211e146102825761012c565b806301ffc9a71461013157806306fdde0314610161578063081812fc1461017f578063095ea7b3146101af57806323b872dd146101cb575b600080fd5b61014b60048036038101906101469190611ee9565b61040c565b6040516101589190611f31565b60405180910390f35b6101696104ee565b6040516101769190611fdc565b60405180910390f35b61019960048036038101906101949190612034565b610580565b6040516101a691906120a2565b60405180910390f35b6101c960048036038101906101c491906120e9565b6105c6565b005b6101e560048036038101906101e09190612129565b6106dd565b005b61020160048036038101906101fc9190612034565b61073d565b005b61021d600480360381019061021891906122b1565b610881565b60405161022a9190612343565b60405180910390f35b61024d60048036038101906102489190612129565b610977565b005b61026960048036038101906102649190612034565b610997565b604051610279949392919061235e565b60405180910390f35b61029c60048036038101906102979190612034565b610a5c565b6040516102a991906120a2565b60405180910390f35b6102cc60048036038101906102c791906123aa565b610ae2565b6040516102d99190612343565b60405180910390f35b6102ea610b99565b005b61030660048036038101906103019190612034565b610bad565b60405161031391906124a2565b60405180910390f35b610324610ce3565b60405161033191906120a2565b60405180910390f35b610342610d0d565b60405161034f9190611fdc565b60405180910390f35b610372600480360381019061036d91906124f0565b610d9f565b005b61038e600480360381019061038991906125d1565b610db5565b005b6103aa60048036038101906103a59190612034565b610e17565b6040516103b79190611fdc565b60405180910390f35b6103da60048036038101906103d59190612654565b610e7f565b6040516103e79190611f31565b60405180910390f35b61040a600480360381019061040591906123aa565b610f13565b005b60007f80ac58cd000000000000000000000000000000000000000000000000000000007bffffffffffffffffffffffffffffffffffffffffffffffffffffffff1916827bffffffffffffffffffffffffffffffffffffffffffffffffffffffff191614806104d757507f5b5e139f000000000000000000000000000000000000000000000000000000007bffffffffffffffffffffffffffffffffffffffffffffffffffffffff1916827bffffffffffffffffffffffffffffffffffffffffffffffffffffffff1916145b806104e757506104e682610f96565b5b9050919050565b6060600080546104fd906126c3565b80601f0160208091040260200160405190810160405280929190818152602001828054610529906126c3565b80156105765780601f1061054b57610100808354040283529160200191610576565b820191906000526020600020905b81548152906001019060200180831161055957829003601f168201915b5050505050905090565b600061058b82611000565b6004600083815260200190815260200160002060009054906101000a900473ffffffffffffffffffffffffffffffffffffffff169050919050565b60006105d182610a5c565b90508073ffffffffffffffffffffffffffffffffffffffff168373ffffffffffffffffffffffffffffffffffffffff1603610641576040517f08c379a000000000000000000000000000000000000000000000000000000000815260040161063890612766565b60405180910390fd5b8073ffffffffffffffffffffffffffffffffffffffff1661066061104b565b73ffffffffffffffffffffffffffffffffffffffff16148061068f575061068e8161068961104b565b610e7f565b5b6106ce576040517f08c379a00000000000000000000000000000000000000000000000000000000081526004016106c5906127f8565b60405180910390fd5b6106d88383611053565b505050565b6106ee6106e861104b565b8261110c565b61072d576040517f08c379a00000000000000000000000000000000000000000000000000000000081526004016107249061288a565b60405180910390fd5b6107388383836111a1565b505050565b3373ffffffffffffffffffffffffffffffffffffffff1661075d82610a5c565b73ffffffffffffffffffffffffffffffffffffffff16146107b3576040517f08c379a00000000000000000000000000000000000000000000000000000000081526004016107aa906128f6565b60405180910390fd5b6008600082815260200190815260200160002060020160009054906101000a900460ff1615610817576040517f08c379a000000000000000000000000000000000000000000000000000000000815260040161080e90612962565b60405180910390fd5b60016008600083815260200190815260200160002060020160006101000a81548160ff021916908315150217905550807f07c2221c844690cb15e32907258d38446cd4a17bc9b84e2069cd955615d547fd3360405161087691906120a2565b60405180910390a250565b600061088b61149a565b6108956007611518565b60006108a1600761152e565b90506108ad868261153c565b6040518060800160405280868152602001858152602001600015158152602001848152506008600083815260200190815260200160002060008201518160000190816108f99190612b2e565b506020820151816001015560408201518160020160006101000a81548160ff02191690831515021790555060608201518160030155905050807f0484f94842646b419a0e924ba515b27093fce72662146119168089c5279dd3e48787604051610963929190612c00565b60405180910390a280915050949350505050565b61099283838360405180602001604052806000815250610db5565b505050565b60086020528060005260406000206000915090508060000180546109ba906126c3565b80601f01602080910402602001604051908101604052809291908181526020018280546109e6906126c3565b8015610a335780601f10610a0857610100808354040283529160200191610a33565b820191906000526020600020905b815481529060010190602001808311610a1657829003601f168201915b5050505050908060010154908060020160009054906101000a900460ff16908060030154905084565b600080610a6883611759565b9050600073ffffffffffffffffffffffffffffffffffffffff168173ffffffffffffffffffffffffffffffffffffffff1603610ad9576040517f08c379a0000000000000000000000000000000000000000000000000000000008152600401610ad090612c7c565b60405180910390fd5b80915050919050565b60008073ffffffffffffffffffffffffffffffffffffffff168273ffffffffffffffffffffffffffffffffffffffff1603610b52576040517f08c379a0000000000000000000000000000000000000000000000000000000008152600401610b4990612d0e565b60405180910390fd5b600360008373ffffffffffffffffffffffffffffffffffffffff1673ffffffffffffffffffffffffffffffffffffffff168152602001908152602001600020549050919050565b610ba161149a565b610bab6000611796565b565b610bb5611e53565b610bbe8261185c565b610bfd576040517f08c379a0000000000000000000000000000000000000000000000000000000008152600401610bf490612d7a565b60405180910390fd5b60086000838152602001908152602001600020604051806080016040529081600082018054610c2b906126c3565b80601f0160208091040260200160405190810160405280929190818152602001828054610c57906126c3565b8015610ca45780601f10610c7957610100808354040283529160200191610ca4565b820191906000526020600020905b815481529060010190602001808311610c8757829003601f168201915b50505050508152602001600182015481526020016002820160009054906101000a900460ff161515151581526020016003820154815250509050919050565b6000600660009054906101000a900473ffffffffffffffffffffffffffffffffffffffff16905090565b606060018054610d1c906126c3565b80601f0160208091040260200160405190810160405280929190818152602001828054610d48906126c3565b8015610d955780601f10610d6a57610100808354040283529160200191610d95565b820191906000526020600020905b815481529060010190602001808311610d7857829003601f168201915b5050505050905090565b610db1610daa61104b565b838361189d565b5050565b610dc6610dc061104b565b8361110c565b610e05576040517f08c379a0000000000000000000000000000000000000000000000000000000008152600401610dfc9061288a565b60405180910390fd5b610e1184848484611a09565b50505050565b6060610e2282611000565b6000610e2c611a65565b90506000815111610e4c5760405180602001604052806000815250610e77565b80610e5684611a7c565b604051602001610e67929190612dd6565b6040516020818303038152906040525b915050919050565b6000600560008473ffffffffffffffffffffffffffffffffffffffff1673ffffffffffffffffffffffffffffffffffffffff16815260200190815260200160002060008373ffffffffffffffffffffffffffffffffffffffff1673ffffffffffffffffffffffffffffffffffffffff16815260200190815260200160002060009054906101000a900460ff16905092915050565b610f1b61149a565b600073ffffffffffffffffffffffffffffffffffffffff168173ffffffffffffffffffffffffffffffffffffffff1603610f8a576040517f08c379a0000000000000000000000000000000000000000000000000000000008152600401610f8190612e6c565b60405180910390fd5b610f9381611796565b50565b60007f01ffc9a7000000000000000000000000000000000000000000000000000000007bffffffffffffffffffffffffffffffffffffffffffffffffffffffff1916827bffffffffffffffffffffffffffffffffffffffffffffffffffffffff1916149050919050565b6110098161185c565b611048576040517f08c379a000000000000000000000000000000000000000000000000000000000815260040161103f90612c7c565b60405180910390fd5b50565b600033905090565b816004600083815260200190815260200160002060006101000a81548173ffffffffffffffffffffffffffffffffffffffff021916908373ffffffffffffffffffffffffffffffffffffffff160217905550808273ffffffffffffffffffffffffffffffffffffffff166110c683610a5c565b73ffffffffffffffffffffffffffffffffffffffff167f8c5be1e5ebec7d5bd14f71427d1e84f3dd0314c0f7b2291e5b200ac8c7c3b92560405160405180910390a45050565b60008061111883610a5c565b90508073ffffffffffffffffffffffffffffffffffffffff168473ffffffffffffffffffffffffffffffffffffffff16148061115a57506111598185610e7f565b5b8061119857508373ffffffffffffffffffffffffffffffffffffffff1661118084610580565b73ffffffffffffffffffffffffffffffffffffffff16145b91505092915050565b8273ffffffffffffffffffffffffffffffffffffffff166111c182610a5c565b73ffffffffffffffffffffffffffffffffffffffff1614611217576040517f08c379a000000000000000000000000000000000000000000000000000000000815260040161120e90612efe565b60405180910390fd5b600073ffffffffffffffffffffffffffffffffffffffff168273ffffffffffffffffffffffffffffffffffffffff1603611286576040517f08c379a000000000000000000000000000000000000000000000000000000000815260040161127d90612f90565b60405180910390fd5b6112938383836001611b4a565b8273ffffffffffffffffffffffffffffffffffffffff166112b382610a5c565b73ffffffffffffffffffffffffffffffffffffffff1614611309576040517f08c379a000000000000000000000000000000000000000000000000000000000815260040161130090612efe565b60405180910390fd5b6004600082815260200190815260200160002060006101000a81549073ffffffffffffffffffffffffffffffffffffffff02191690556001600360008573ffffffffffffffffffffffffffffffffffffffff1673ffffffffffffffffffffffffffffffffffffffff168152602001908152602001600020600082825403925050819055506001600360008473ffffffffffffffffffffffffffffffffffffffff1673ffffffffffffffffffffffffffffffffffffffff16815260200190815260200160002060008282540192505081905550816002600083815260200190815260200160002060006101000a81548173ffffffffffffffffffffffffffffffffffffffff021916908373ffffffffffffffffffffffffffffffffffffffff160217905550808273ffffffffffffffffffffffffffffffffffffffff168473ffffffffffffffffffffffffffffffffffffffff167fddf252ad1be2c89b69c2b068fc378daa952ba7f163c4a11628f55a4df523b3ef60405160405180910390a46114958383836001611b50565b505050565b6114a261104b565b73ffffffffffffffffffffffffffffffffffffffff166114c0610ce3565b73ffffffffffffffffffffffffffffffffffffffff1614611516576040517f08c379a000000000000000000000000000000000000000000000000000000000815260040161150d90612ffc565b60405180910390fd5b565b6001816000016000828254019250508190555050565b600081600001549050919050565b600073ffffffffffffffffffffffffffffffffffffffff168273ffffffffffffffffffffffffffffffffffffffff16036115ab576040517f08c379a00000000000000000000000000000000000000000000000000000000081526004016115a290613068565b60405180910390fd5b6115b48161185c565b156115f4576040517f08c379a00000000000000000000000000000000000000000000000000000000081526004016115eb906130d4565b60405180910390fd5b611602600083836001611b4a565b61160b8161185c565b1561164b576040517f08c379a0000000000000000000000000000000000000000000000000000000008152600401611642906130d4565b60405180910390fd5b6001600360008473ffffffffffffffffffffffffffffffffffffffff1673ffffffffffffffffffffffffffffffffffffffff16815260200190815260200160002060008282540192505081905550816002600083815260200190815260200160002060006101000a81548173ffffffffffffffffffffffffffffffffffffffff021916908373ffffffffffffffffffffffffffffffffffffffff160217905550808273ffffffffffffffffffffffffffffffffffffffff16600073ffffffffffffffffffffffffffffffffffffffff167fddf252ad1be2c89b69c2b068fc378daa952ba7f163c4a11628f55a4df523b3ef60405160405180910390a4611755600083836001611b50565b5050565b60006002600083815260200190815260200160002060009054906101000a900473ffffffffffffffffffffffffffffffffffffffff169050919050565b6000600660009054906101000a900473ffffffffffffffffffffffffffffffffffffffff16905081600660006101000a81548173ffffffffffffffffffffffffffffffffffffffff021916908373ffffffffffffffffffffffffffffffffffffffff1602179055508173ffffffffffffffffffffffffffffffffffffffff168173ffffffffffffffffffffffffffffffffffffffff167f8be0079c531659141344cd1fd0a4f28419497f9722a3daafe3b4186f6b6457e060405160405180910390a35050565b60008073ffffffffffffffffffffffffffffffffffffffff1661187e83611759565b73ffffffffffffffffffffffffffffffffffffffff1614159050919050565b8173ffffffffffffffffffffffffffffffffffffffff168373ffffffffffffffffffffffffffffffffffffffff160361190b576040517f08c379a000000000000000000000000000000000000000000000000000000000815260040161190290613140565b60405180910390fd5b80600560008573ffffffffffffffffffffffffffffffffffffffff1673ffffffffffffffffffffffffffffffffffffffff16815260200190815260200160002060008473ffffffffffffffffffffffffffffffffffffffff1673ffffffffffffffffffffffffffffffffffffffff16815260200190815260200160002060006101000a81548160ff0219169083151502179055508173ffffffffffffffffffffffffffffffffffffffff168373ffffffffffffffffffffffffffffffffffffffff167f17307eab39ab6107e8899845ad3d59bd9653f200f220920489ca2b5937696c31836040516119fc9190611f31565b60405180910390a3505050565b611a148484846111a1565b611a2084848484611b56565b611a5f576040517f08c379a0000000000000000000000000000000000000000000000000000000008152600401611a56906131d2565b60405180910390fd5b50505050565b606060405180602001604052806000815250905090565b606060006001611a8b84611cdd565b01905060008167ffffffffffffffff811115611aaa57611aa9612186565b5b6040519080825280601f01601f191660200182016040528015611adc5781602001600182028036833780820191505090505b509050600082602001820190505b600115611b3f578080600190039150507f3031323334353637383961626364656600000000000000000000000000000000600a86061a8153600a8581611b3357611b326131f2565b5b04945060008503611aea575b819350505050919050565b50505050565b50505050565b6000611b778473ffffffffffffffffffffffffffffffffffffffff16611e30565b15611cd0578373ffffffffffffffffffffffffffffffffffffffff1663150b7a02611ba061104b565b8786866040518563ffffffff1660e01b8152600401611bc29493929190613276565b6020604051808303816000875af1925050508015611bfe57506040513d601f19601f82011682018060405250810190611bfb91906132d7565b60015b611c80573d8060008114611c2e576040519150601f19603f3d011682016040523d82523d6000602084013e611c33565b606091505b506000815103611c78576040517f08c379a0000000000000000000000000000000000000000000000000000000008152600401611c6f906131d2565b60405180910390fd5b805181602001fd5b63150b7a0260e01b7bffffffffffffffffffffffffffffffffffffffffffffffffffffffff1916817bffffffffffffffffffffffffffffffffffffffffffffffffffffffff191614915050611cd5565b600190505b949350505050565b600080600090507a184f03e93ff9f4daa797ed6e38ed64bf6a1f0100000000000000008310611d3b577a184f03e93ff9f4daa797ed6e38ed64bf6a1f0100000000000000008381611d3157611d306131f2565b5b0492506040810190505b6d04ee2d6d415b85acef81000000008310611d78576d04ee2d6d415b85acef81000000008381611d6e57611d6d6131f2565b5b0492506020810190505b662386f26fc100008310611da757662386f26fc100008381611d9d57611d9c6131f2565b5b0492506010810190505b6305f5e1008310611dd0576305f5e1008381611dc657611dc56131f2565b5b0492506008810190505b6127108310611df5576127108381611deb57611dea6131f2565b5b0492506004810190505b60648310611e185760648381611e0e57611e0d6131f2565b5b0492506002810190505b600a8310611e27576001810190505b80915050919050565b6000808273ffffffffffffffffffffffffffffffffffffffff163b119050919050565b60405180608001604052806060815260200160008152602001600015158152602001600081525090565b6000604051905090565b600080fd5b600080fd5b60007fffffffff0000000000000000000000000000000000000000000000000000000082169050919050565b611ec681611e91565b8114611ed157600080fd5b50565b600081359050611ee381611ebd565b92915050565b600060208284031215611eff57611efe611e87565b5b6000611f0d84828501611ed4565b91505092915050565b60008115159050919050565b611f2b81611f16565b82525050565b6000602082019050611f466000830184611f22565b92915050565b600081519050919050565b600082825260208201905092915050565b60005b83811015611f86578082015181840152602081019050611f6b565b60008484015250505050565b6000601f19601f8301169050919050565b6000611fae82611f4c565b611fb88185611f57565b9350611fc8818560208601611f68565b611fd181611f92565b840191505092915050565b60006020820190508181036000830152611ff68184611fa3565b905092915050565b6000819050919050565b61201181611ffe565b811461201c57600080fd5b50565b60008135905061202e81612008565b92915050565b60006020828403121561204a57612049611e87565b5b60006120588482850161201f565b91505092915050565b600073ffffffffffffffffffffffffffffffffffffffff82169050919050565b600061208c82612061565b9050919050565b61209c81612081565b82525050565b60006020820190506120b76000830184612093565b92915050565b6120c681612081565b81146120d157600080fd5b50565b6000813590506120e3816120bd565b92915050565b60008060408385031215612100576120ff611e87565b5b600061210e858286016120d4565b925050602061211f8582860161201f565b9150509250929050565b60008060006060848603121561214257612141611e87565b5b6000612150868287016120d4565b9350506020612161868287016120d4565b92505060406121728682870161201f565b9150509250925092565b600080fd5b600080fd5b7f4e487b7100000000000000000000000000000000000000000000000000000000600052604160045260246000fd5b6121be82611f92565b810181811067ffffffffffffffff821117156121dd576121dc612186565b5b80604052505050565b60006121f0611e7d565b90506121fc82826121b5565b919050565b600067ffffffffffffffff82111561221c5761221b612186565b5b61222582611f92565b9050602081019050919050565b82818337600083830152505050565b600061225461224f84612201565b6121e6565b9050828152602081018484840111156122705761226f612181565b5b61227b848285612232565b509392505050565b600082601f8301126122985761229761217c565b5b81356122a8848260208601612241565b91505092915050565b600080600080608085870312156122cb576122ca611e87565b5b60006122d9878288016120d4565b945050602085013567ffffffffffffffff8111156122fa576122f9611e8c565b5b61230687828801612283565b93505060406123178782880161201f565b92505060606123288782880161201f565b91505092959194509250565b61233d81611ffe565b82525050565b60006020820190506123586000830184612334565b92915050565b600060808201905081810360008301526123788187611fa3565b90506123876020830186612334565b6123946040830185611f22565b6123a16060830184612334565b95945050505050565b6000602082840312156123c0576123bf611e87565b5b60006123ce848285016120d4565b91505092915050565b600082825260208201905092915050565b60006123f382611f4c565b6123fd81856123d7565b935061240d818560208601611f68565b61241681611f92565b840191505092915050565b61242a81611ffe565b82525050565b61243981611f16565b82525050565b6000608083016000830151848203600086015261245c82826123e8565b91505060208301516124716020860182612421565b5060408301516124846040860182612430565b5060608301516124976060860182612421565b508091505092915050565b600060208201905081810360008301526124bc818461243f565b905092915050565b6124cd81611f16565b81146124d857600080fd5b50565b6000813590506124ea816124c4565b92915050565b6000806040838503121561250757612506611e87565b5b6000612515858286016120d4565b9250506020612526858286016124db565b9150509250929050565b600067ffffffffffffffff82111561254b5761254a612186565b5b61255482611f92565b9050602081019050919050565b600061257461256f84612530565b6121e6565b9050828152602081018484840111156125905761258f612181565b5b61259b848285612232565b509392505050565b600082601f8301126125b8576125b761217c565b5b81356125c8848260208601612561565b91505092915050565b600080600080608085870312156125eb576125ea611e87565b5b60006125f9878288016120d4565b945050602061260a878288016120d4565b935050604061261b8782880161201f565b925050606085013567ffffffffffffffff81111561263c5761263b611e8c565b5b612648878288016125a3565b91505092959194509250565b6000806040838503121561266b5761266a611e87565b5b6000612679858286016120d4565b925050602061268a858286016120d4565b9150509250929050565b7f4e487b7100000000000000000000000000000000000000000000000000000000600052602260045260246000fd5b600060028204905060018216806126db57607f821691505b6020821081036126ee576126ed612694565b5b50919050565b7f4552433732313a20617070726f76616c20746f2063757272656e74206f776e6560008201527f7200000000000000000000000000000000000000000000000000000000000000602082015250565b6000612750602183611f57565b915061275b826126f4565b604082019050919050565b6000602082019050818103600083015261277f81612743565b9050919050565b7f4552433732313a20617070726f76652063616c6c6572206973206e6f7420746f60008201527f6b656e206f776e6572206f7220617070726f76656420666f7220616c6c000000602082015250565b60006127e2603d83611f57565b91506127ed82612786565b604082019050919050565b60006020820190508181036000830152612811816127d5565b9050919050565b7f4552433732313a2063616c6c6572206973206e6f7420746f6b656e206f776e6560008201527f72206f7220617070726f76656400000000000000000000000000000000000000602082015250565b6000612874602d83611f57565b915061287f82612818565b604082019050919050565b600060208201905081810360008301526128a381612867565b9050919050565b7f596f7520646f6e2774206f776e2074686973207469636b657400000000000000600082015250565b60006128e0601983611f57565b91506128eb826128aa565b602082019050919050565b6000602082019050818103600083015261290f816128d3565b9050919050565b7f5469636b657420616c7265616479207573656400000000000000000000000000600082015250565b600061294c601383611f57565b915061295782612916565b602082019050919050565b6000602082019050818103600083015261297b8161293f565b9050919050565b60008190508160005260206000209050919050565b60006020601f8301049050919050565b600082821b905092915050565b6000600883026129e47fffffffffffffffffffffffffffffffffffffffffffffffffffffffffffffffff826129a7565b6129ee86836129a7565b95508019841693508086168417925050509392505050565b6000819050919050565b6000612a2b612a26612a2184611ffe565b612a06565b611ffe565b9050919050565b6000819050919050565b612a4583612a10565b612a59612a5182612a32565b8484546129b4565b825550505050565b600090565b612a6e612a61565b612a79818484612a3c565b505050565b5b81811015612a9d57612a92600082612a66565b600181019050612a7f565b5050565b601f821115612ae257612ab381612982565b612abc84612997565b81016020851015612acb578190505b612adf612ad785612997565b830182612a7e565b50505b505050565b600082821c905092915050565b6000612b0560001984600802612ae7565b1980831691505092915050565b6000612b1e8383612af4565b9150826002028217905092915050565b612b3782611f4c565b67ffffffffffffffff811115612b5057612b4f612186565b5b612b5a82546126c3565b612b65828285612aa1565b600060209050601f831160018114612b985760008415612b86578287015190505b612b908582612b12565b865550612bf8565b601f198416612ba686612982565b60005b82811015612bce57848901518255600182019150602085019450602081019050612ba9565b86831015612beb5784890151612be7601f891682612af4565b8355505b6001600288020188555050505b505050505050565b6000604082019050612c156000830185612093565b8181036020830152612c278184611fa3565b90509392505050565b7f4552433732313a20696e76616c696420746f6b656e2049440000000000000000600082015250565b6000612c66601883611f57565b9150612c7182612c30565b602082019050919050565b60006020820190508181036000830152612c9581612c59565b9050919050565b7f4552433732313a2061646472657373207a65726f206973206e6f74206120766160008201527f6c6964206f776e65720000000000000000000000000000000000000000000000602082015250565b6000612cf8602983611f57565b9150612d0382612c9c565b604082019050919050565b60006020820190508181036000830152612d2781612ceb565b9050919050565b7f5469636b657420646f6573206e6f742065786973740000000000000000000000600082015250565b6000612d64601583611f57565b9150612d6f82612d2e565b602082019050919050565b60006020820190508181036000830152612d9381612d57565b9050919050565b600081905092915050565b6000612db082611f4c565b612dba8185612d9a565b9350612dca818560208601611f68565b80840191505092915050565b6000612de28285612da5565b9150612dee8284612da5565b91508190509392505050565b7f4f776e61626c653a206e6577206f776e657220697320746865207a65726f206160008201527f6464726573730000000000000000000000000000000000000000000000000000602082015250565b6000612e56602683611f57565b9150612e6182612dfa565b604082019050919050565b60006020820190508181036000830152612e8581612e49565b9050919050565b7f4552433732313a207472616e736665722066726f6d20696e636f72726563742060008201527f6f776e6572000000000000000000000000000000000000000000000000000000602082015250565b6000612ee8602583611f57565b9150612ef382612e8c565b604082019050919050565b60006020820190508181036000830152612f1781612edb565b9050919050565b7f4552433732313a207472616e7366657220746f20746865207a65726f2061646460008201527f7265737300000000000000000000000000000000000000000000000000000000602082015250565b6000612f7a602483611f57565b9150612f8582612f1e565b604082019050919050565b60006020820190508181036000830152612fa981612f6d565b9050919050565b7f4f776e61626c653a2063616c6c6572206973206e6f7420746865206f776e6572600082015250565b6000612fe6602083611f57565b9150612ff182612fb0565b602082019050919050565b6000602082019050818103600083015261301581612fd9565b9050919050565b7f4552433732313a206d696e7420746f20746865207a65726f2061646472657373600082015250565b6000613052602083611f57565b915061305d8261301c565b602082019050919050565b6000602082019050818103600083015261308181613045565b9050919050565b7f4552433732313a20746f6b656e20616c7265616479206d696e74656400000000600082015250565b60006130be601c83611f57565b91506130c982613088565b602082019050919050565b600060208201905081810360008301526130ed816130b1565b9050919050565b7f4552433732313a20617070726f766520746f2063616c6c657200000000000000600082015250565b600061312a601983611f57565b9150613135826130f4565b602082019050919050565b600060208201905081810360008301526131598161311d565b9050919050565b7f4552433732313a207472616e7366657220746f206e6f6e20455243373231526560008201527f63656976657220696d706c656d656e7465720000000000000000000000000000602082015250565b60006131bc603283611f57565b91506131c782613160565b604082019050919050565b600060208201905081810360008301526131eb816131af565b9050919050565b7f4e487b7100000000000000000000000000000000000000000000000000000000600052601260045260246000fd5b600081519050919050565b600082825260208201905092915050565b600061324882613221565b613252818561322c565b9350613262818560208601611f68565b61326b81611f92565b840191505092915050565b600060808201905061328b6000830187612093565b6132986020830186612093565b6132a56040830185612334565b81810360608301526132b7818461323d565b905095945050505050565b6000815190506132d181611ebd565b92915050565b6000602082840312156132ed576132ec611e87565b5b60006132fb848285016132c2565b9150509291505056fea26469706673582212207e87bd0f3d5b1df03f0571526c6f3ceaebee67e778077f8c1df5bb0a30f11b3a64736f6c634300081c0033",
    "linkReferences": {},
    "deployedLinkReferences": {}
}