{
    "_format": "hh-sol-artifact-1",
    "contractName": "EventTickets",
    "sourceName": "contracts/EventTickets.sol",
    "abi": [
        {
            "inputs": [],
            "stateMutability": "nonpayable",
            "type": "constructor"
        },
        {
            "anonymous": false,
            "inputs": [
                {
                    "indexed": true,
                    "internalType": "address",
                    "name": "owner",
                    "type": "address"
                },
                {
                    "indexed": true,
                    "internalType": "address",
                    "name": "approved",
                    "type": "address"
                },
                {
                    "indexed": true,
                    "internalType": "uint256",
                    "name": "tokenId",
                    "type": "uint256"
                }
            ],
            "name": "Approval",
            "type": "event"
        },
        {
            "anonymous": false,
            "inputs": [
                {
                    "indexed": true,
                    "internalType": "address",
                    "name": "owner",
                    "type": "address"
                },
                {
                    "indexed": true,
                    "internalType": "address",
                    "name": "operator",
                    "type": "address"
                },
                {
                    "indexed": false,
                    "internalType": "bool",
                    "name": "approved",
                    "type": "bool"
                }
            ],
            "name": "ApprovalForAll",
            "type": "event"
        },
        {
            "anonymous": false,
            "inputs": [
                {
                    "indexed": true,
                    "internalType": "address",
                    "name": "account",
                    "type": "address"
                }
            ],
            "name": "MinterAdded",
            "type": "event"
        },
        {
            "anonymous": false,
            "inputs": [
                {
                    "indexed": true,
                    "internalType": "address",
                    "name": "account",
                    "type": "address"
                }
            ],
            "name": "MinterRemoved",
            "type": "event"
        },
        {
            "anonymous": false,
            "inputs": [
                {
                    "indexed": true,
                    "internalType": "address",
                    "name": "account",
                    "type": "address"
                },
                {
                    "indexed": false,
                    "internalType": "uint256",
                    "name": "amount",
                    "type": "uint256"
                }
            ],
            "name": "RevenueWithdrawn",
            "type": "event"
        },
        {
            "anonymous": false,
            "inputs": [
                {
                    "indexed": true,
                    "internalType": "bytes32",
                    "name": "role",
                    "type": "bytes32"
                },
                {
                    "indexed": true,
                    "internalType": "bytes32",
                    "name": "previousAdminRole",
                    "type": "bytes32"
                },
                {
                    "indexed": true,
                    "internalType": "bytes32",
                    "name": "newAdminRole",
                    "type": "bytes32"
                }
            ],
            "name": "RoleAdminChanged",
            "type": "event"
        },
        {
            "anonymous": false,
            "inputs": [
                {
                    "indexed": true,
                    "internalType": "bytes32",
                    "name": "role",
                    "type": "bytes32"
                },
                {
                    "indexed": true,
                    "internalType": "address",
                    "name": "account",
                    "type": "address"
                },
                {
                    "indexed": true,
                    "internalType": "address",
                    "name": "sender",
                    "type": "address"
                }
            ],
            "name": "RoleGranted",
            "type": "event"
        },
        {
            "anonymous": false,
            "inputs": [
                {
                    "indexed": true,
                    "internalType": "bytes32",
                    "name": "role",
                    "type": "bytes32"
                },
                {
                    "indexed": true,
                    "internalType": "address",
                    "name": "account",
                    "type": "address"
                },
                {
                    "indexed": true,
                    "internalType": "address",
                    "name": "sender",
                    "type": "address"
                }
            ],
            "name": "RoleRevoked",
            "type": "event"
        },
        {
            "anonymous": false,
            "inputs": [
                {
                    "indexed": true,
                    "internalType": "uint256",
                    "name": "tokenId",
                    "type": "uint256"
                },
                {
                    "indexed": false,
                    "internalType": "address",
                    "name": "recipient",
                    "type": "address"
                },
                {
                    "indexed": false,
                    "internalType": "string",
                    "name": "eventName",
                    "type": "string"
                }
            ],
            "name": "TicketCreated",
            "type": "event"
        },
        {
            "anonymous": false,
            "inputs": [
                {
                    "indexed": true,
                    "internalType": "uint256",
                    "name": "tokenId",
                    "type": "uint256"
                },
                {
                    "indexed": false,
                    "internalType": "uint256",
                    "name": "price",
                    "type": "uint256"
                }
            ],
            "name": "TicketListed",
            "type": "event"
        },
        {
            "anonymous": false,
            "inputs": [
                {
                    "indexed": true,
                    "internalType": "uint256",
                    "name": "tokenId",
                    "type": "uint256"
                },
                {
                    "indexed": false,
                    "internalType": "uint256",
                    "name": "newPrice",
                    "type": "uint256"
                }
            ],
            "name": "TicketPriceChanged",
            "type": "event"
        },
        {
            "anonymous": false,
            "inputs": [
                {
                    "indexed": true,
                    "internalType": "uint256",
                    "name": "tokenId",
                    "type": "uint256"
                },
                {
                    "indexed": false,
                    "internalType": "address",
                    "name": "buyer",
                    "type": "address"
                },
                {
                    "indexed": false,
                    "internalType": "uint256",
                    "name": "price",
                    "type": "uint256"
                }
            ],
            "name": "TicketPurchased",
            "type": "event"
        },
        {
            "anonymous": false,
            "inputs": [
                {
                    "indexed": true,
                    "internalType": "uint256",
                    "name": "tokenId",
                    "type": "uint256"
                },
                {
                    "indexed": false,
                    "internalType": "address",
                    "name": "owner",
                    "type": "address"
                }
            ],
            "name": "TicketUsed",
            "type": "event"
        },
        {
            "anonymous": false,
            "inputs": [
                {
                    "indexed": true,
                    "internalType": "address",
                    "name": "from",
                    "type": "address"
                },
                {
                    "indexed": true,
                    "internalType": "address",
                    "name": "to",
                    "type": "address"
                },
                {
                    "indexed": true,
                    "internalType": "uint256",
                    "name": "tokenId",
                    "type": "uint256"
                }
            ],
            "name": "Transfer",
            "type": "event"
        },
        {
            "stateMutability": "payable",
            "type": "fallback"
        },
        {
            "inputs": [],
            "name": "DEFAULT_ADMIN_ROLE",
            "outputs": [
                {
                    "internalType": "bytes32",
                    "name": "",
                    "type": "bytes32"
                }
            ],
            "stateMutability": "view",
            "type": "function"
        },
        {
            "inputs": [],
            "name": "MINTER_ROLE",
            "outputs": [
                {
                    "internalType": "bytes32",
                    "name": "",
                    "type": "bytes32"
                }
            ],
            "stateMutability": "view",
            "type": "function"
        },
        {
            "inputs": [
                {
                    "internalType": "address",
                    "name": "account",
                    "type": "address"
                }
            ],
            "name": "addMinter",
            "outputs": [],
            "stateMutability": "nonpayable",
            "type": "function"
        },
        {
            "inputs": [
                {
                    "internalType": "address",
                    "name": "to",
                    "type": "address"
                },
                {
                    "internalType": "uint256",
                    "name": "tokenId",
                    "type": "uint256"
                }
            ],
            "name": "approve",
            "outputs": [],
            "stateMutability": "nonpayable",
            "type": "function"
        },
        {
            "inputs": [
                {
                    "internalType": "address",
                    "name": "owner",
                    "type": "address"
                }
            ],
            "name": "balanceOf",
            "outputs": [
                {
                    "internalType": "uint256",
                    "name": "",
                    "type": "uint256"
                }
            ],
            "stateMutability": "view",
            "type": "function"
        },
        {
            "inputs": [
                {
                    "internalType": "address",
                    "name": "recipient",
                    "type": "address"
                },
                {
                    "internalType": "string",
                    "name": "eventName",
                    "type": "string"
                },
                {
                    "internalType": "uint256",
                    "name": "eventDate",
                    "type": "uint256"
                },
                {
                    "internalType": "uint256",
                    "name": "price",
                    "type": "uint256"
                }
            ],
            "name": "createTicket",
            "outputs": [
                {
                    "internalType": "uint256",
                    "name": "",
                    "type": "uint256"
                }
            ],
            "stateMutability": "nonpayable",
            "type": "function"
        },
        {
            "inputs": [
                {
                    "internalType": "uint256",
                    "name": "tokenId",
                    "type": "uint256"
                }
            ],
            "name": "getApproved",
            "outputs": [
                {
                    "internalType": "address",
                    "name": "",
                    "type": "address"
                }
            ],
            "stateMutability": "view",
            "type": "function"
        },
        {
            "inputs": [],
            "name": "getAvailableTickets",
            "outputs": [
                {
                    "internalType": "uint256[]",
                    "name": "",
                    "type": "uint256[]"
                }
            ],
            "stateMutability": "view",
            "type": "function"
        },
        {
            "inputs": [],
            "name": "getMinters",
            "outputs": [
                {
                    "internalType": "address[]",
                    "name": "",
                    "type": "address[]"
                }
            ],
            "stateMutability": "view",
            "type": "function"
        },
        {
            "inputs": [
                {
                    "internalType": "bytes32",
                    "name": "role",
                    "type": "bytes32"
                }
            ],
            "name": "getRoleAdmin",
            "outputs": [
                {
                    "internalType": "bytes32",
                    "name": "",
                    "type": "bytes32"
                }
            ],
            "stateMutability": "view",
            "type": "function"
        },
        {
            "inputs": [
                {
                    "internalType": "uint256",
                    "name": "tokenId",
                    "type": "uint256"
                }
            ],
            "name": "getTicket",
            "outputs": [
                {
                    "components": [
                        {
                            "internalType": "string",
                            "name": "eventName",
                            "type": "string"
                        },
                        {
                            "internalType": "uint256",
                            "name": "eventDate",
                            "type": "uint256"
                        },
                        {
                            "internalType": "bool",
                            "name": "isUsed",
                            "type": "bool"
                        },
                        {
                            "internalType": "uint256",
                            "name": "price",
                            "type": "uint256"
                        }
                    ],
                    "internalType": "struct EventTickets.Ticket",
                    "name": "",
                    "type": "tuple"
                }
            ],
            "stateMutability": "view",
            "type": "function"
        },
        {
            "inputs": [
                {
                    "internalType": "bytes32",
                    "name": "role",
                    "type": "bytes32"
                },
                {
                    "internalType": "address",
                    "name": "account",
                    "type": "address"
                }
            ],
            "name": "grantRole",
            "outputs": [],
            "stateMutability": "nonpayable",
            "type": "function"
        },
        {
            "inputs": [
                {
                    "internalType": "bytes32",
                    "name": "role",
                    "type": "bytes32"
                },
                {
                    "internalType": "address",
                    "name": "account",
                    "type": "address"
                }
            ],
            "name": "hasRole",
            "outputs": [
                {
                    "internalType": "bool",
                    "name": "",
                    "type": "bool"
                }
            ],
            "stateMutability": "view",
            "type": "function"
        },
        {
            "inputs": [
                {
                    "internalType": "address",
                    "name": "owner",
                    "type": "address"
                },
                {
                    "internalType": "address",
                    "name": "operator",
                    "type": "address"
                }
            ],
            "name": "isApprovedForAll",
            "outputs": [
                {
                    "internalType": "bool",
                    "name": "",
                    "type": "bool"
                }
            ],
            "stateMutability": "view",
            "type": "function"
        },
        {
            "inputs": [
                {
                    "internalType": "address",
                    "name": "account",
                    "type": "address"
                }
            ],
            "name": "isMinter",
            "outputs": [
                {
                    "internalType": "bool",
                    "name": "",
                    "type": "bool"
                }
            ],
            "stateMutability": "view",
            "type": "function"
        },
        {
            "inputs": [],
            "name": "name",
            "outputs": [
                {
                    "internalType": "string",
                    "name": "",
                    "type": "string"
                }
            ],
            "stateMutability": "view",
            "type": "function"
        },
        {
            "inputs": [
                {
                    "internalType": "uint256",
                    "name": "tokenId",
                    "type": "uint256"
                }
            ],
            "name": "ownerOf",
            "outputs": [
                {
                    "internalType": "address",
                    "name": "",
                    "type": "address"
                }
            ],
            "stateMutability": "view",
            "type": "function"
        },
        {
            "inputs": [
                {
                    "internalType": "uint256",
                    "name": "tokenId",
                    "type": "uint256"
                }
            ],
            "name": "purchaseTicket",
            "outputs": [],
            "stateMutability": "payable",
            "type": "function"
        },
        {
            "inputs": [
                {
                    "internalType": "address",
                    "name": "account",
                    "type": "address"
                }
            ],
            "name": "removeMinter",
            "outputs": [],
            "stateMutability": "nonpayable",
            "type": "function"
        },
        {
            "inputs": [
                {
                    "internalType": "bytes32",
                    "name": "role",
                    "type": "bytes32"
                },
                {
                    "internalType": "address",
                    "name": "account",
                    "type": "address"
                }
            ],
            "name": "renounceRole",
            "outputs": [],
            "stateMutability": "nonpayable",
            "type": "function"
        },
        {
            "inputs": [
                {
                    "internalType": "address",
                    "name": "",
                    "type": "address"
                }
            ],
            "name": "revenues",
            "outputs": [
                {
                    "internalType": "uint256",
                    "name": "",
                    "type": "uint256"
                }
            ],
            "stateMutability": "view",
            "type": "function"
        },
        {
            "inputs": [
                {
                    "internalType": "bytes32",
                    "name": "role",
                    "type": "bytes32"
                },
                {
                    "internalType": "address",
                    "name": "account",
                    "type": "address"
                }
            ],
            "name": "revokeRole",
            "outputs": [],
            "stateMutability": "nonpayable",
            "type": "function"
        },
        {
            "inputs": [
                {
                    "internalType": "address",
                    "name": "from",
                    "type": "address"
                },
                {
                    "internalType": "address",
                    "name": "to",
                    "type": "address"
                },
                {
                    "internalType": "uint256",
                    "name": "tokenId",
                    "type": "uint256"
                }
            ],
            "name": "safeTransferFrom",
            "outputs": [],
            "stateMutability": "nonpayable",
            "type": "function"
        },
        {
            "inputs": [
                {
                    "internalType": "address",
                    "name": "from",
                    "type": "address"
                },
                {
                    "internalType": "address",
                    "name": "to",
                    "type": "address"
                },
                {
                    "internalType": "uint256",
                    "name": "tokenId",
                    "type": "uint256"
                },
                {
                    "internalType": "bytes",
                    "name": "data",
                    "type": "bytes"
                }
            ],
            "name": "safeTransferFrom",
            "outputs": [],
            "stateMutability": "nonpayable",
            "type": "function"
        },
        {
            "inputs": [
                {
                    "internalType": "uint256",
                    "name": "tokenId",
                    "type": "uint256"
                }
            ],
            "name": "sellTicket",
            "outputs": [],
            "stateMutability": "nonpayable",
            "type": "function"
        },
        {
            "inputs": [
                {
                    "internalType": "address",
                    "name": "operator",
                    "type": "address"
                },
                {
                    "internalType": "bool",
                    "name": "approved",
                    "type": "bool"
                }
            ],
            "name": "setApprovalForAll",
            "outputs": [],
            "stateMutability": "nonpayable",
            "type": "function"
        },
        {
            "inputs": [
                {
                    "internalType": "uint256",
                    "name": "tokenId",
                    "type": "uint256"
                },
                {
                    "internalType": "uint256",
                    "name": "newPrice",
                    "type": "uint256"
                }
            ],
            "name": "setTicketPrice",
            "outputs": [],
            "stateMutability": "nonpayable",
            "type": "function"
        },
        {
            "inputs": [
                {
                    "internalType": "bytes4",
                    "name": "interfaceId",
                    "type": "bytes4"
                }
            ],
            "name": "supportsInterface",
            "outputs": [
                {
                    "internalType": "bool",
                    "name": "",
                    "type": "bool"
                }
            ],
            "stateMutability": "view",
            "type": "function"
        },
        {
            "inputs": [],
            "name": "symbol",
            "outputs": [
                {
                    "internalType": "string",
                    "name": "",
                    "type": "string"
                }
            ],
            "stateMutability": "view",
            "type": "function"
        },
        {
            "inputs": [
                {
                    "internalType": "uint256",
                    "name": "",
                    "type": "uint256"
                }
            ],
            "name": "tickets",
            "outputs": [
                {
                    "internalType": "string",
                    "name": "eventName",
                    "type": "string"
                },
                {
                    "internalType": "uint256",
                    "name": "eventDate",
                    "type": "uint256"
                },
                {
                    "internalType": "bool",
                    "name": "isUsed",
                    "type": "bool"
                },
                {
                    "internalType": "uint256",
                    "name": "price",
                    "type": "uint256"
                }
            ],
            "stateMutability": "view",
            "type": "function"
        },
        {
            "inputs": [
                {
                    "internalType": "uint256",
                    "name": "tokenId",
                    "type": "uint256"
                }
            ],
            "name": "tokenURI",
            "outputs": [
                {
                    "internalType": "string",
                    "name": "",
                    "type": "string"
                }
            ],
            "stateMutability": "view",
            "type": "function"
        },
        {
            "inputs": [],
            "name": "totalSupply",
            "outputs": [
                {
                    "internalType": "uint256",
                    "name": "",
                    "type": "uint256"
                }
            ],
            "stateMutability": "view",
            "type": "function"
        },
        {
            "inputs": [
                {
                    "internalType": "address",
                    "name": "from",
                    "type": "address"
                },
                {
                    "internalType": "address",
                    "name": "to",
                    "type": "address"
                },
                {
                    "internalType": "uint256",
                    "name": "tokenId",
                    "type": "uint256"
                }
            ],
            "name": "transferFrom",
            "outputs": [],
            "stateMutability": "nonpayable",
            "type": "function"
        },
        {
            "inputs": [
                {
                    "internalType": "uint256",
                    "name": "tokenId",
                    "type": "uint256"
                }
            ],
            "name": "useTicket",
            "outputs": [],
            "stateMutability": "nonpayable",
            "type": "function"
        },
        {
            "inputs": [],
            "name": "withdrawRevenue",
            "outputs": [],
            "stateMutability": "nonpayable",
            "type": "function"
        },
        {
            "stateMutability": "payable",
            "type": "receive"
        }
    ],
    "bytecode": "0x608060405234801561001057600080fd5b506040518060400160405280600c81526020017f4576656e745469636b65747300000000000000000000000000000000000000008152506040518060400160405280600481526020017f5449585300000000000000000000000000000000000000000000000000000000815250816000908161008c919061058f565b50806001908161009c919061058f565b5050506100b26000801b336100fc60201b60201c565b6100e27f9f2df0fed2c77648de5860a4cc508cd0818c85b8b8a1ab4ceeef8d981c8956a6336100fc60201b60201c565b6100f633600861011060201b90919060201c565b50610661565b61010c828261014660201b60201c565b5050565b600061013e836000018373ffffffffffffffffffffffffffffffffffffffff1660001b61023360201b60201c565b905092915050565b61015682826102a960201b60201c565b61022f5760016006600084815260200190815260200160002060000160008373ffffffffffffffffffffffffffffffffffffffff1673ffffffffffffffffffffffffffffffffffffffff16815260200190815260200160002060006101000a81548160ff0219169083151502179055506101d461031460201b60201c565b73ffffffffffffffffffffffffffffffffffffffff168173ffffffffffffffffffffffffffffffffffffffff16837f2f8788117e7eff1d82e926ec794901d17c78024a50270940304540a733656f0d60405160405180910390a45b5050565b6000610245838361031c60201b60201c565b61029e5782600001829080600181540180825580915050600190039060005260206000200160009091909190915055826000018054905083600101600084815260200190815260200160002081905550600190506102a3565b600090505b92915050565b60006006600084815260200190815260200160002060000160008373ffffffffffffffffffffffffffffffffffffffff1673ffffffffffffffffffffffffffffffffffffffff16815260200190815260200160002060009054906101000a900460ff16905092915050565b600033905090565b600080836001016000848152602001908152602001600020541415905092915050565b600081519050919050565b7f4e487b7100000000000000000000000000000000000000000000000000000000600052604160045260246000fd5b7f4e487b7100000000000000000000000000000000000000000000000000000000600052602260045260246000fd5b600060028204905060018216806103c057607f821691505b6020821081036103d3576103d2610379565b5b50919050565b60008190508160005260206000209050919050565b60006020601f8301049050919050565b600082821b905092915050565b60006008830261043b7fffffffffffffffffffffffffffffffffffffffffffffffffffffffffffffffff826103fe565b61044586836103fe565b95508019841693508086168417925050509392505050565b6000819050919050565b6000819050919050565b600061048c6104876104828461045d565b610467565b61045d565b9050919050565b6000819050919050565b6104a683610471565b6104ba6104b282610493565b84845461040b565b825550505050565b600090565b6104cf6104c2565b6104da81848461049d565b505050565b5b818110156104fe576104f36000826104c7565b6001810190506104e0565b5050565b601f82111561054357610514816103d9565b61051d846103ee565b8101602085101561052c578190505b610540610538856103ee565b8301826104df565b50505b505050565b600082821c905092915050565b600061056660001984600802610548565b1980831691505092915050565b600061057f8383610555565b9150826002028217905092915050565b6105988261033f565b67ffffffffffffffff8111156105b1576105b061034a565b5b6105bb82546103a8565b6105c6828285610502565b600060209050601f8311600181146105f957600084156105e7578287015190505b6105f18582610573565b865550610659565b601f198416610607866103d9565b60005b8281101561062f5784890151825560018201915060208501945060208101905061060a565b8683101561064c5784890151610648601f891682610555565b8355505b6001600288020188555050505b505050505050565b615717806106706000396000f3fe6080604052600436106102085760003560e01c80636b32810b11610118578063aa271e1a116100a0578063c87b56dd1161006f578063c87b56dd146107a5578063d5391393146107e2578063d547741f1461080d578063e985e9c514610836578063f192866a1461087357610209565b8063aa271e1a146106fa578063aa4c4cc114610737578063b88d4fde14610760578063b948348c1461078957610209565b806391d14854116100e757806391d148541461061557806395d89b4114610652578063983b2d561461067d578063a217fddf146106a6578063a22cb465146106d157610209565b80636b32810b1461053357806370a082311461055e57806378ae98c81461059b5780637dc379fa146105d857610209565b80632f2ff15d1161019b57806342842e0e1161016a57806342842e0e1461044b5780634f573cb21461047457806350b447121461048b5780635a8acacc146104cb5780636352211e146104f657610209565b80632f2ff15d146103935780633092afd5146103bc578063317d49d2146103e557806336568abe1461042257610209565b806318160ddd116101d757806318160ddd146102d957806323b872dd14610304578063248a9ca31461032d578063266064481461036a57610209565b806301ffc9a71461020b57806306fdde0314610248578063081812fc14610273578063095ea7b3146102b057610209565b5b005b34801561021757600080fd5b50610232600480360381019061022d91906138e7565b61089c565b60405161023f919061392f565b60405180910390f35b34801561025457600080fd5b5061025d6108ae565b60405161026a91906139da565b60405180910390f35b34801561027f57600080fd5b5061029a60048036038101906102959190613a32565b610940565b6040516102a79190613aa0565b60405180910390f35b3480156102bc57600080fd5b506102d760048036038101906102d29190613ae7565b610986565b005b3480156102e557600080fd5b506102ee610a9d565b6040516102fb9190613b36565b60405180910390f35b34801561031057600080fd5b5061032b60048036038101906103269190613b51565b610aae565b005b34801561033957600080fd5b50610354600480360381019061034f9190613bda565b610b0e565b6040516103619190613c16565b60405180910390f35b34801561037657600080fd5b50610391600480360381019061038c9190613a32565b610b2e565b005b34801561039f57600080fd5b506103ba60048036038101906103b59190613c31565b610cb5565b005b3480156103c857600080fd5b506103e360048036038101906103de9190613c71565b610cd6565b005b3480156103f157600080fd5b5061040c60048036038101906104079190613dd3565b610da7565b6040516104199190613b36565b60405180910390f35b34801561042e57600080fd5b5061044960048036038101906104449190613c31565b611036565b005b34801561045757600080fd5b50610472600480360381019061046d9190613b51565b6110b9565b005b34801561048057600080fd5b506104896110d9565b005b34801561049757600080fd5b506104b260048036038101906104ad9190613a32565b6112e2565b6040516104c29493929190613e56565b60405180910390f35b3480156104d757600080fd5b506104e06113a7565b6040516104ed9190613f60565b60405180910390f35b34801561050257600080fd5b5061051d60048036038101906105189190613a32565b61157a565b60405161052a9190613aa0565b60405180910390f35b34801561053f57600080fd5b50610548611600565b6040516105559190614040565b60405180910390f35b34801561056a57600080fd5b5061058560048036038101906105809190613c71565b6116df565b6040516105929190613b36565b60405180910390f35b3480156105a757600080fd5b506105c260048036038101906105bd9190613c71565b611796565b6040516105cf9190613b36565b60405180910390f35b3480156105e457600080fd5b506105ff60048036038101906105fa9190613a32565b6117ae565b60405161060c919061411e565b60405180910390f35b34801561062157600080fd5b5061063c60048036038101906106379190613c31565b6118e4565b604051610649919061392f565b60405180910390f35b34801561065e57600080fd5b5061066761194f565b60405161067491906139da565b60405180910390f35b34801561068957600080fd5b506106a4600480360381019061069f9190613c71565b6119e1565b005b3480156106b257600080fd5b506106bb611ab2565b6040516106c89190613c16565b60405180910390f35b3480156106dd57600080fd5b506106f860048036038101906106f3919061416c565b611ab9565b005b34801561070657600080fd5b50610721600480360381019061071c9190613c71565b611acf565b60405161072e919061392f565b60405180910390f35b34801561074357600080fd5b5061075e600480360381019061075991906141ac565b611b02565b005b34801561076c57600080fd5b506107876004803603810190610782919061428d565b611c4d565b005b6107a3600480360381019061079e9190613a32565b611caf565b005b3480156107b157600080fd5b506107cc60048036038101906107c79190613a32565b611f86565b6040516107d991906139da565b60405180910390f35b3480156107ee57600080fd5b506107f7611fee565b6040516108049190613c16565b60405180910390f35b34801561081957600080fd5b50610834600480360381019061082f9190613c31565b612012565b005b34801561084257600080fd5b5061085d60048036038101906108589190614310565b612033565b60405161086a919061392f565b60405180910390f35b34801561087f57600080fd5b5061089a60048036038101906108959190613a32565b6120c7565b005b60006108a782612245565b9050919050565b6060600080546108bd9061437f565b80601f01602080910402602001604051908101604052809291908181526020018280546108e99061437f565b80156109365780601f1061090b57610100808354040283529160200191610936565b820191906000526020600020905b81548152906001019060200180831161091957829003601f168201915b5050505050905090565b600061094b826122bf565b6004600083815260200190815260200160002060009054906101000a900473ffffffffffffffffffffffffffffffffffffffff169050919050565b60006109918261157a565b90508073ffffffffffffffffffffffffffffffffffffffff168373ffffffffffffffffffffffffffffffffffffffff1603610a01576040517f08c379a00000000000000000000000000000000000000000000000000000000081526004016109f890614422565b60405180910390fd5b8073ffffffffffffffffffffffffffffffffffffffff16610a2061230a565b73ffffffffffffffffffffffffffffffffffffffff161480610a4f5750610a4e81610a4961230a565b612033565b5b610a8e576040517f08c379a0000000000000000000000000000000000000000000000000000000008152600401610a85906144b4565b60405180910390fd5b610a988383612312565b505050565b6000610aa960076123cb565b905090565b610abf610ab961230a565b826123d9565b610afe576040517f08c379a0000000000000000000000000000000000000000000000000000000008152600401610af590614546565b60405180910390fd5b610b0983838361246e565b505050565b600060066000838152602001908152602001600020600101549050919050565b610b587f9f2df0fed2c77648de5860a4cc508cd0818c85b8b8a1ab4ceeef8d981c8956a6336118e4565b610b97576040517f08c379a0000000000000000000000000000000000000000000000000000000008152600401610b8e906145b2565b60405180910390fd5b610ba081612767565b610bdf576040517f08c379a0000000000000000000000000000000000000000000000000000000008152600401610bd69061461e565b60405180910390fd5b600a600082815260200190815260200160002060020160009054906101000a900460ff1615610c43576040517f08c379a0000000000000000000000000000000000000000000000000000000008152600401610c3a9061468a565b60405180910390fd5b6001600a600083815260200190815260200160002060020160006101000a81548160ff021916908315150217905550807f07c2221c844690cb15e32907258d38446cd4a17bc9b84e2069cd955615d547fd610c9d8361157a565b604051610caa9190613aa0565b60405180910390a250565b610cbe82610b0e565b610cc7816127a8565b610cd183836127bc565b505050565b610ce36000801b336118e4565b610d22576040517f08c379a0000000000000000000000000000000000000000000000000000000008152600401610d19906146f6565b60405180910390fd5b610d4c7f9f2df0fed2c77648de5860a4cc508cd0818c85b8b8a1ab4ceeef8d981c8956a682612012565b610d6081600861289d90919063ffffffff16565b508073ffffffffffffffffffffffffffffffffffffffff167fe94479a9f7e1952cc78f2d6baab678adc1b772d936c6583def489e524cb6669260405160405180910390a250565b6000610dd37f9f2df0fed2c77648de5860a4cc508cd0818c85b8b8a1ab4ceeef8d981c8956a6336118e4565b610e12576040517f08c379a0000000000000000000000000000000000000000000000000000000008152600401610e09906145b2565b60405180910390fd5b600073ffffffffffffffffffffffffffffffffffffffff168573ffffffffffffffffffffffffffffffffffffffff1603610e81576040517f08c379a0000000000000000000000000000000000000000000000000000000008152600401610e7890614762565b60405180910390fd5b6000845111610ec5576040517f08c379a0000000000000000000000000000000000000000000000000000000008152600401610ebc906147ce565b60405180910390fd5b428311610f07576040517f08c379a0000000000000000000000000000000000000000000000000000000008152600401610efe9061483a565b60405180910390fd5b60008211610f4a576040517f08c379a0000000000000000000000000000000000000000000000000000000008152600401610f41906148a6565b60405180910390fd5b610f5460076128cd565b6000610f6060076123cb565b9050610f6c86826128e3565b604051806080016040528086815260200185815260200160001515815260200184815250600a60008381526020019081526020016000206000820151816000019081610fb89190614a72565b506020820151816001015560408201518160020160006101000a81548160ff02191690831515021790555060608201518160030155905050807f0484f94842646b419a0e924ba515b27093fce72662146119168089c5279dd3e48787604051611022929190614b44565b60405180910390a280915050949350505050565b61103e61230a565b73ffffffffffffffffffffffffffffffffffffffff168173ffffffffffffffffffffffffffffffffffffffff16146110ab576040517f08c379a00000000000000000000000000000000000000000000000000000000081526004016110a290614be6565b60405180910390fd5b6110b58282612b00565b5050565b6110d483838360405180602001604052806000815250611c4d565b505050565b6000600b60003373ffffffffffffffffffffffffffffffffffffffff1673ffffffffffffffffffffffffffffffffffffffff168152602001908152602001600020541161115b576040517f08c379a000000000000000000000000000000000000000000000000000000000815260040161115290614c52565b60405180910390fd5b6000600b60003373ffffffffffffffffffffffffffffffffffffffff1673ffffffffffffffffffffffffffffffffffffffff1681526020019081526020016000205490506000600b60003373ffffffffffffffffffffffffffffffffffffffff1673ffffffffffffffffffffffffffffffffffffffff1681526020019081526020016000208190555060003373ffffffffffffffffffffffffffffffffffffffff168260405161120a90614ca3565b60006040518083038185875af1925050503d8060008114611247576040519150601f19603f3d011682016040523d82523d6000602084013e61124c565b606091505b5050905080611290576040517f08c379a000000000000000000000000000000000000000000000000000000000815260040161128790614d04565b60405180910390fd5b3373ffffffffffffffffffffffffffffffffffffffff167f86a5cc8fe9af9ae68fb50f62885307a7755a30cbd290131644377f0bd94a7181836040516112d69190613b36565b60405180910390a25050565b600a6020528060005260406000206000915090508060000180546113059061437f565b80601f01602080910402602001604051908101604052809291908181526020018280546113319061437f565b801561137e5780601f106113535761010080835404028352916020019161137e565b820191906000526020600020905b81548152906001019060200180831161136157829003601f168201915b5050505050908060010154908060020160009054906101000a900460ff16908060030154905084565b606060006113b560076123cb565b905060008167ffffffffffffffff8111156113d3576113d2613ca8565b5b6040519080825280602002602001820160405280156114015781602001602082028036833780820191505090505b509050600080600190505b8381116114cf5761141c81612767565b801561145b57503073ffffffffffffffffffffffffffffffffffffffff166114438261157a565b73ffffffffffffffffffffffffffffffffffffffff16145b80156114885750600a600082815260200190815260200160002060020160009054906101000a900460ff16155b156114bc57808383815181106114a1576114a0614d24565b5b60200260200101818152505081806114b890614d82565b9250505b80806114c790614d82565b91505061140c565b5060008167ffffffffffffffff8111156114ec576114eb613ca8565b5b60405190808252806020026020018201604052801561151a5781602001602082028036833780820191505090505b50905060005b8281101561156f5783818151811061153b5761153a614d24565b5b602002602001015182828151811061155657611555614d24565b5b6020026020010181815250508080600101915050611520565b508094505050505090565b60008061158683612be2565b9050600073ffffffffffffffffffffffffffffffffffffffff168173ffffffffffffffffffffffffffffffffffffffff16036115f7576040517f08c379a00000000000000000000000000000000000000000000000000000000081526004016115ee90614e16565b60405180910390fd5b80915050919050565b6060600061160e6008612c1f565b905060008167ffffffffffffffff81111561162c5761162b613ca8565b5b60405190808252806020026020018201604052801561165a5781602001602082028036833780820191505090505b50905060005b828110156116d65761167c816008612c3490919063ffffffff16565b82828151811061168f5761168e614d24565b5b602002602001019073ffffffffffffffffffffffffffffffffffffffff16908173ffffffffffffffffffffffffffffffffffffffff16815250508080600101915050611660565b50809250505090565b60008073ffffffffffffffffffffffffffffffffffffffff168273ffffffffffffffffffffffffffffffffffffffff160361174f576040517f08c379a000000000000000000000000000000000000000000000000000000000815260040161174690614ea8565b60405180910390fd5b600360008373ffffffffffffffffffffffffffffffffffffffff1673ffffffffffffffffffffffffffffffffffffffff168152602001908152602001600020549050919050565b600b6020528060005260406000206000915090505481565b6117b6613851565b6117bf82612767565b6117fe576040517f08c379a00000000000000000000000000000000000000000000000000000000081526004016117f59061461e565b60405180910390fd5b600a600083815260200190815260200160002060405180608001604052908160008201805461182c9061437f565b80601f01602080910402602001604051908101604052809291908181526020018280546118589061437f565b80156118a55780601f1061187a576101008083540402835291602001916118a5565b820191906000526020600020905b81548152906001019060200180831161188857829003601f168201915b50505050508152602001600182015481526020016002820160009054906101000a900460ff161515151581526020016003820154815250509050919050565b60006006600084815260200190815260200160002060000160008373ffffffffffffffffffffffffffffffffffffffff1673ffffffffffffffffffffffffffffffffffffffff16815260200190815260200160002060009054906101000a900460ff16905092915050565b60606001805461195e9061437f565b80601f016020809104026020016040519081016040528092919081815260200182805461198a9061437f565b80156119d75780601f106119ac576101008083540402835291602001916119d7565b820191906000526020600020905b8154815290600101906020018083116119ba57829003601f168201915b5050505050905090565b6119ee6000801b336118e4565b611a2d576040517f08c379a0000000000000000000000000000000000000000000000000000000008152600401611a24906146f6565b60405180910390fd5b611a577f9f2df0fed2c77648de5860a4cc508cd0818c85b8b8a1ab4ceeef8d981c8956a682610cb5565b611a6b816008612c4e90919063ffffffff16565b508073ffffffffffffffffffffffffffffffffffffffff167f6ae172837ea30b801fbfcdd4108aa1d5bf8ff775444fd70256b44e6bf3dfc3f660405160405180910390a250565b6000801b81565b611acb611ac461230a565b8383612c7e565b5050565b6000611afb7f9f2df0fed2c77648de5860a4cc508cd0818c85b8b8a1ab4ceeef8d981c8956a6836118e4565b9050919050565b611b2c7f9f2df0fed2c77648de5860a4cc508cd0818c85b8b8a1ab4ceeef8d981c8956a6336118e4565b611b6b576040517f08c379a0000000000000000000000000000000000000000000000000000000008152600401611b62906145b2565b60405180910390fd5b611b7482612767565b611bb3576040517f08c379a0000000000000000000000000000000000000000000000000000000008152600401611baa9061461e565b60405180910390fd5b60008111611bf6576040517f08c379a0000000000000000000000000000000000000000000000000000000008152600401611bed906148a6565b60405180910390fd5b80600a600084815260200190815260200160002060030181905550817f82a40b2eb2e166a9a513e909894042d026f115051ab5c019f766ba8b33c28f3f82604051611c419190613b36565b60405180910390a25050565b611c5e611c5861230a565b836123d9565b611c9d576040517f08c379a0000000000000000000000000000000000000000000000000000000008152600401611c9490614546565b60405180910390fd5b611ca984848484612dea565b50505050565b611cb881612767565b611cf7576040517f08c379a0000000000000000000000000000000000000000000000000000000008152600401611cee9061461e565b60405180910390fd5b600a600082815260200190815260200160002060020160009054906101000a900460ff1615611d5b576040517f08c379a0000000000000000000000000000000000000000000000000000000008152600401611d529061468a565b60405180910390fd5b3073ffffffffffffffffffffffffffffffffffffffff16611d7b8261157a565b73ffffffffffffffffffffffffffffffffffffffff1614611dd1576040517f08c379a0000000000000000000000000000000000000000000000000000000008152600401611dc890614f14565b60405180910390fd5b600a600082815260200190815260200160002060030154341015611e2a576040517f08c379a0000000000000000000000000000000000000000000000000000000008152600401611e2190614f80565b60405180910390fd5b6000600a60008381526020019081526020016000206003015434611e4e9190614fa0565b9050611e5b30338461246e565b6000611e7260006008612c3490919063ffffffff16565b9050600a600084815260200190815260200160002060030154600b60008373ffffffffffffffffffffffffffffffffffffffff1673ffffffffffffffffffffffffffffffffffffffff1681526020019081526020016000206000828254611ed99190614fd4565b925050819055506000821115611f31573373ffffffffffffffffffffffffffffffffffffffff166108fc839081150290604051600060405180830381858888f19350505050158015611f2f573d6000803e3d6000fd5b505b827fdbaaf4c87ce30816c961a81d110622a3227ede77953d4383d514ff88ab2e0fd333600a600087815260200190815260200160002060030154604051611f79929190615008565b60405180910390a2505050565b6060611f91826122bf565b6000611f9b612e46565b90506000815111611fbb5760405180602001604052806000815250611fe6565b80611fc584612e5d565b604051602001611fd692919061506d565b6040516020818303038152906040525b915050919050565b7f9f2df0fed2c77648de5860a4cc508cd0818c85b8b8a1ab4ceeef8d981c8956a681565b61201b82610b0e565b612024816127a8565b61202e8383612b00565b505050565b6000600560008473ffffffffffffffffffffffffffffffffffffffff1673ffffffffffffffffffffffffffffffffffffffff16815260200190815260200160002060008373ffffffffffffffffffffffffffffffffffffffff1673ffffffffffffffffffffffffffffffffffffffff16815260200190815260200160002060009054906101000a900460ff16905092915050565b6120d081612767565b61210f576040517f08c379a00000000000000000000000000000000000000000000000000000000081526004016121069061461e565b60405180910390fd5b3373ffffffffffffffffffffffffffffffffffffffff1661212f8261157a565b73ffffffffffffffffffffffffffffffffffffffff1614612185576040517f08c379a000000000000000000000000000000000000000000000000000000000815260040161217c906150dd565b60405180910390fd5b600a600082815260200190815260200160002060020160009054906101000a900460ff16156121e9576040517f08c379a00000000000000000000000000000000000000000000000000000000081526004016121e09061468a565b60405180910390fd5b6121f433308361246e565b807fbca2f6391cafd6d28d39261ba883dd74090c618befb806e74ef434778bb2f7ed600a60008481526020019081526020016000206003015460405161223a9190613b36565b60405180910390a250565b60007f7965db0b000000000000000000000000000000000000000000000000000000007bffffffffffffffffffffffffffffffffffffffffffffffffffffffff1916827bffffffffffffffffffffffffffffffffffffffffffffffffffffffff191614806122b857506122b782612f2b565b5b9050919050565b6122c881612767565b612307576040517f08c379a00000000000000000000000000000000000000000000000000000000081526004016122fe90614e16565b60405180910390fd5b50565b600033905090565b816004600083815260200190815260200160002060006101000a81548173ffffffffffffffffffffffffffffffffffffffff021916908373ffffffffffffffffffffffffffffffffffffffff160217905550808273ffffffffffffffffffffffffffffffffffffffff166123858361157a565b73ffffffffffffffffffffffffffffffffffffffff167f8c5be1e5ebec7d5bd14f71427d1e84f3dd0314c0f7b2291e5b200ac8c7c3b92560405160405180910390a45050565b600081600001549050919050565b6000806123e58361157a565b90508073ffffffffffffffffffffffffffffffffffffffff168473ffffffffffffffffffffffffffffffffffffffff16148061242757506124268185612033565b5b8061246557508373ffffffffffffffffffffffffffffffffffffffff1661244d84610940565b73ffffffffffffffffffffffffffffffffffffffff16145b91505092915050565b8273ffffffffffffffffffffffffffffffffffffffff1661248e8261157a565b73ffffffffffffffffffffffffffffffffffffffff16146124e4576040517f08c379a00000000000000000000000000000000000000000000000000000000081526004016124db9061516f565b60405180910390fd5b600073ffffffffffffffffffffffffffffffffffffffff168273ffffffffffffffffffffffffffffffffffffffff1603612553576040517f08c379a000000000000000000000000000000000000000000000000000000000815260040161254a90615201565b60405180910390fd5b612560838383600161300d565b8273ffffffffffffffffffffffffffffffffffffffff166125808261157a565b73ffffffffffffffffffffffffffffffffffffffff16146125d6576040517f08c379a00000000000000000000000000000000000000000000000000000000081526004016125cd9061516f565b60405180910390fd5b6004600082815260200190815260200160002060006101000a81549073ffffffffffffffffffffffffffffffffffffffff02191690556001600360008573ffffffffffffffffffffffffffffffffffffffff1673ffffffffffffffffffffffffffffffffffffffff168152602001908152602001600020600082825403925050819055506001600360008473ffffffffffffffffffffffffffffffffffffffff1673ffffffffffffffffffffffffffffffffffffffff16815260200190815260200160002060008282540192505081905550816002600083815260200190815260200160002060006101000a81548173ffffffffffffffffffffffffffffffffffffffff021916908373ffffffffffffffffffffffffffffffffffffffff160217905550808273ffffffffffffffffffffffffffffffffffffffff168473ffffffffffffffffffffffffffffffffffffffff167fddf252ad1be2c89b69c2b068fc378daa952ba7f163c4a11628f55a4df523b3ef60405160405180910390a46127628383836001613013565b505050565b60008073ffffffffffffffffffffffffffffffffffffffff1661278983612be2565b73ffffffffffffffffffffffffffffffffffffffff1614159050919050565b6127b9816127b461230a565b613019565b50565b6127c682826118e4565b6128995760016006600084815260200190815260200160002060000160008373ffffffffffffffffffffffffffffffffffffffff1673ffffffffffffffffffffffffffffffffffffffff16815260200190815260200160002060006101000a81548160ff02191690831515021790555061283e61230a565b73ffffffffffffffffffffffffffffffffffffffff168173ffffffffffffffffffffffffffffffffffffffff16837f2f8788117e7eff1d82e926ec794901d17c78024a50270940304540a733656f0d60405160405180910390a45b5050565b60006128c5836000018373ffffffffffffffffffffffffffffffffffffffff1660001b61309e565b905092915050565b6001816000016000828254019250508190555050565b600073ffffffffffffffffffffffffffffffffffffffff168273ffffffffffffffffffffffffffffffffffffffff1603612952576040517f08c379a00000000000000000000000000000000000000000000000000000000081526004016129499061526d565b60405180910390fd5b61295b81612767565b1561299b576040517f08c379a0000000000000000000000000000000000000000000000000000000008152600401612992906152d9565b60405180910390fd5b6129a960008383600161300d565b6129b281612767565b156129f2576040517f08c379a00000000000000000000000000000000000000000000000000000000081526004016129e9906152d9565b60405180910390fd5b6001600360008473ffffffffffffffffffffffffffffffffffffffff1673ffffffffffffffffffffffffffffffffffffffff16815260200190815260200160002060008282540192505081905550816002600083815260200190815260200160002060006101000a81548173ffffffffffffffffffffffffffffffffffffffff021916908373ffffffffffffffffffffffffffffffffffffffff160217905550808273ffffffffffffffffffffffffffffffffffffffff16600073ffffffffffffffffffffffffffffffffffffffff167fddf252ad1be2c89b69c2b068fc378daa952ba7f163c4a11628f55a4df523b3ef60405160405180910390a4612afc600083836001613013565b5050565b612b0a82826118e4565b15612bde5760006006600084815260200190815260200160002060000160008373ffffffffffffffffffffffffffffffffffffffff1673ffffffffffffffffffffffffffffffffffffffff16815260200190815260200160002060006101000a81548160ff021916908315150217905550612b8361230a565b73ffffffffffffffffffffffffffffffffffffffff168173ffffffffffffffffffffffffffffffffffffffff16837ff6391f5c32d9c69d2a47ea670b442974b53935d1edc7fd64eb21e047a839171b60405160405180910390a45b5050565b60006002600083815260200190815260200160002060009054906101000a900473ffffffffffffffffffffffffffffffffffffffff169050919050565b6000612c2d826000016131b2565b9050919050565b6000612c4383600001836131c3565b60001c905092915050565b6000612c76836000018373ffffffffffffffffffffffffffffffffffffffff1660001b6131ee565b905092915050565b8173ffffffffffffffffffffffffffffffffffffffff168373ffffffffffffffffffffffffffffffffffffffff1603612cec576040517f08c379a0000000000000000000000000000000000000000000000000000000008152600401612ce390615345565b60405180910390fd5b80600560008573ffffffffffffffffffffffffffffffffffffffff1673ffffffffffffffffffffffffffffffffffffffff16815260200190815260200160002060008473ffffffffffffffffffffffffffffffffffffffff1673ffffffffffffffffffffffffffffffffffffffff16815260200190815260200160002060006101000a81548160ff0219169083151502179055508173ffffffffffffffffffffffffffffffffffffffff168373ffffffffffffffffffffffffffffffffffffffff167f17307eab39ab6107e8899845ad3d59bd9653f200f220920489ca2b5937696c3183604051612ddd919061392f565b60405180910390a3505050565b612df584848461246e565b612e018484848461325e565b612e40576040517f08c379a0000000000000000000000000000000000000000000000000000000008152600401612e37906153d7565b60405180910390fd5b50505050565b606060405180602001604052806000815250905090565b606060006001612e6c846133e5565b01905060008167ffffffffffffffff811115612e8b57612e8a613ca8565b5b6040519080825280601f01601f191660200182016040528015612ebd5781602001600182028036833780820191505090505b509050600082602001820190505b600115612f20578080600190039150507f3031323334353637383961626364656600000000000000000000000000000000600a86061a8153600a8581612f1457612f136153f7565b5b04945060008503612ecb575b819350505050919050565b60007f80ac58cd000000000000000000000000000000000000000000000000000000007bffffffffffffffffffffffffffffffffffffffffffffffffffffffff1916827bffffffffffffffffffffffffffffffffffffffffffffffffffffffff19161480612ff657507f5b5e139f000000000000000000000000000000000000000000000000000000007bffffffffffffffffffffffffffffffffffffffffffffffffffffffff1916827bffffffffffffffffffffffffffffffffffffffffffffffffffffffff1916145b80613006575061300582613538565b5b9050919050565b50505050565b50505050565b61302382826118e4565b61309a57613030816135a2565b61303e8360001c60206135cf565b60405160200161304f9291906154be565b6040516020818303038152906040526040517f08c379a000000000000000000000000000000000000000000000000000000000815260040161309191906139da565b60405180910390fd5b5050565b600080836001016000848152602001908152602001600020549050600081146131a65760006001826130d09190614fa0565b90506000600186600001805490506130e89190614fa0565b905081811461315757600086600001828154811061310957613108614d24565b5b906000526020600020015490508087600001848154811061312d5761312c614d24565b5b90600052602060002001819055508387600101600083815260200190815260200160002081905550505b8560000180548061316b5761316a6154f8565b5b6001900381819060005260206000200160009055905585600101600086815260200190815260200160002060009055600193505050506131ac565b60009150505b92915050565b600081600001805490509050919050565b60008260000182815481106131db576131da614d24565b5b9060005260206000200154905092915050565b60006131fa838361380b565b613253578260000182908060018154018082558091505060019003906000526020600020016000909190919091505582600001805490508360010160008481526020019081526020016000208190555060019050613258565b600090505b92915050565b600061327f8473ffffffffffffffffffffffffffffffffffffffff1661382e565b156133d8578373ffffffffffffffffffffffffffffffffffffffff1663150b7a026132a861230a565b8786866040518563ffffffff1660e01b81526004016132ca949392919061557c565b6020604051808303816000875af192505050801561330657506040513d601f19601f8201168201806040525081019061330391906155dd565b60015b613388573d8060008114613336576040519150601f19603f3d011682016040523d82523d6000602084013e61333b565b606091505b506000815103613380576040517f08c379a0000000000000000000000000000000000000000000000000000000008152600401613377906153d7565b60405180910390fd5b805181602001fd5b63150b7a0260e01b7bffffffffffffffffffffffffffffffffffffffffffffffffffffffff1916817bffffffffffffffffffffffffffffffffffffffffffffffffffffffff1916149150506133dd565b600190505b949350505050565b600080600090507a184f03e93ff9f4daa797ed6e38ed64bf6a1f0100000000000000008310613443577a184f03e93ff9f4daa797ed6e38ed64bf6a1f0100000000000000008381613439576134386153f7565b5b0492506040810190505b6d04ee2d6d415b85acef81000000008310613480576d04ee2d6d415b85acef81000000008381613476576134756153f7565b5b0492506020810190505b662386f26fc1000083106134af57662386f26fc1000083816134a5576134a46153f7565b5b0492506010810190505b6305f5e10083106134d8576305f5e10083816134ce576134cd6153f7565b5b0492506008810190505b61271083106134fd5761271083816134f3576134f26153f7565b5b0492506004810190505b606483106135205760648381613516576135156153f7565b5b0492506002810190505b600a831061352f576001810190505b80915050919050565b60007f01ffc9a7000000000000000000000000000000000000000000000000000000007bffffffffffffffffffffffffffffffffffffffffffffffffffffffff1916827bffffffffffffffffffffffffffffffffffffffffffffffffffffffff1916149050919050565b60606135c88273ffffffffffffffffffffffffffffffffffffffff16601460ff166135cf565b9050919050565b6060600060028360026135e2919061560a565b6135ec9190614fd4565b67ffffffffffffffff81111561360557613604613ca8565b5b6040519080825280601f01601f1916602001820160405280156136375781602001600182028036833780820191505090505b5090507f30000000000000000000000000000000000000000000000000000000000000008160008151811061366f5761366e614d24565b5b60200101907effffffffffffffffffffffffffffffffffffffffffffffffffffffffffffff1916908160001a9053507f7800000000000000000000000000000000000000000000000000000000000000816001815181106136d3576136d2614d24565b5b60200101907effffffffffffffffffffffffffffffffffffffffffffffffffffffffffffff1916908160001a90535060006001846002613713919061560a565b61371d9190614fd4565b90505b60018111156137bd577f3031323334353637383961626364656600000000000000000000000000000000600f86166010811061375f5761375e614d24565b5b1a60f81b82828151811061377657613775614d24565b5b60200101907effffffffffffffffffffffffffffffffffffffffffffffffffffffffffffff1916908160001a905350600485901c9450806137b69061564c565b9050613720565b5060008414613801576040517f08c379a00000000000000000000000000000000000000000000000000000000081526004016137f8906156c1565b60405180910390fd5b8091505092915050565b600080836001016000848152602001908152602001600020541415905092915050565b6000808273ffffffffffffffffffffffffffffffffffffffff163b119050919050565b60405180608001604052806060815260200160008152602001600015158152602001600081525090565b6000604051905090565b600080fd5b600080fd5b60007fffffffff0000000000000000000000000000000000000000000000000000000082169050919050565b6138c48161388f565b81146138cf57600080fd5b50565b6000813590506138e1816138bb565b92915050565b6000602082840312156138fd576138fc613885565b5b600061390b848285016138d2565b91505092915050565b60008115159050919050565b61392981613914565b82525050565b60006020820190506139446000830184613920565b92915050565b600081519050919050565b600082825260208201905092915050565b60005b83811015613984578082015181840152602081019050613969565b60008484015250505050565b6000601f19601f8301169050919050565b60006139ac8261394a565b6139b68185613955565b93506139c6818560208601613966565b6139cf81613990565b840191505092915050565b600060208201905081810360008301526139f481846139a1565b905092915050565b6000819050919050565b613a0f816139fc565b8114613a1a57600080fd5b50565b600081359050613a2c81613a06565b92915050565b600060208284031215613a4857613a47613885565b5b6000613a5684828501613a1d565b91505092915050565b600073ffffffffffffffffffffffffffffffffffffffff82169050919050565b6000613a8a82613a5f565b9050919050565b613a9a81613a7f565b82525050565b6000602082019050613ab56000830184613a91565b92915050565b613ac481613a7f565b8114613acf57600080fd5b50565b600081359050613ae181613abb565b92915050565b60008060408385031215613afe57613afd613885565b5b6000613b0c85828601613ad2565b9250506020613b1d85828601613a1d565b9150509250929050565b613b30816139fc565b82525050565b6000602082019050613b4b6000830184613b27565b92915050565b600080600060608486031215613b6a57613b69613885565b5b6000613b7886828701613ad2565b9350506020613b8986828701613ad2565b9250506040613b9a86828701613a1d565b9150509250925092565b6000819050919050565b613bb781613ba4565b8114613bc257600080fd5b50565b600081359050613bd481613bae565b92915050565b600060208284031215613bf057613bef613885565b5b6000613bfe84828501613bc5565b91505092915050565b613c1081613ba4565b82525050565b6000602082019050613c2b6000830184613c07565b92915050565b60008060408385031215613c4857613c47613885565b5b6000613c5685828601613bc5565b9250506020613c6785828601613ad2565b9150509250929050565b600060208284031215613c8757613c86613885565b5b6000613c9584828501613ad2565b91505092915050565b600080fd5b600080fd5b7f4e487b7100000000000000000000000000000000000000000000000000000000600052604160045260246000fd5b613ce082613990565b810181811067ffffffffffffffff82111715613cff57613cfe613ca8565b5b80604052505050565b6000613d1261387b565b9050613d1e8282613cd7565b919050565b600067ffffffffffffffff821115613d3e57613d3d613ca8565b5b613d4782613990565b9050602081019050919050565b82818337600083830152505050565b6000613d76613d7184613d23565b613d08565b905082815260208101848484011115613d9257613d91613ca3565b5b613d9d848285613d54565b509392505050565b600082601f830112613dba57613db9613c9e565b5b8135613dca848260208601613d63565b91505092915050565b60008060008060808587031215613ded57613dec613885565b5b6000613dfb87828801613ad2565b945050602085013567ffffffffffffffff811115613e1c57613e1b61388a565b5b613e2887828801613da5565b9350506040613e3987828801613a1d565b9250506060613e4a87828801613a1d565b91505092959194509250565b60006080820190508181036000830152613e7081876139a1565b9050613e7f6020830186613b27565b613e8c6040830185613920565b613e996060830184613b27565b95945050505050565b600081519050919050565b600082825260208201905092915050565b6000819050602082019050919050565b613ed7816139fc565b82525050565b6000613ee98383613ece565b60208301905092915050565b6000602082019050919050565b6000613f0d82613ea2565b613f178185613ead565b9350613f2283613ebe565b8060005b83811015613f53578151613f3a8882613edd565b9750613f4583613ef5565b925050600181019050613f26565b5085935050505092915050565b60006020820190508181036000830152613f7a8184613f02565b905092915050565b600081519050919050565b600082825260208201905092915050565b6000819050602082019050919050565b613fb781613a7f565b82525050565b6000613fc98383613fae565b60208301905092915050565b6000602082019050919050565b6000613fed82613f82565b613ff78185613f8d565b935061400283613f9e565b8060005b8381101561403357815161401a8882613fbd565b975061402583613fd5565b925050600181019050614006565b5085935050505092915050565b6000602082019050818103600083015261405a8184613fe2565b905092915050565b600082825260208201905092915050565b600061407e8261394a565b6140888185614062565b9350614098818560208601613966565b6140a181613990565b840191505092915050565b6140b581613914565b82525050565b600060808301600083015184820360008601526140d88282614073565b91505060208301516140ed6020860182613ece565b50604083015161410060408601826140ac565b5060608301516141136060860182613ece565b508091505092915050565b6000602082019050818103600083015261413881846140bb565b905092915050565b61414981613914565b811461415457600080fd5b50565b60008135905061416681614140565b92915050565b6000806040838503121561418357614182613885565b5b600061419185828601613ad2565b92505060206141a285828601614157565b9150509250929050565b600080604083850312156141c3576141c2613885565b5b60006141d185828601613a1d565b92505060206141e285828601613a1d565b9150509250929050565b600067ffffffffffffffff82111561420757614206613ca8565b5b61421082613990565b9050602081019050919050565b600061423061422b846141ec565b613d08565b90508281526020810184848401111561424c5761424b613ca3565b5b614257848285613d54565b509392505050565b600082601f83011261427457614273613c9e565b5b813561428484826020860161421d565b91505092915050565b600080600080608085870312156142a7576142a6613885565b5b60006142b587828801613ad2565b94505060206142c687828801613ad2565b93505060406142d787828801613a1d565b925050606085013567ffffffffffffffff8111156142f8576142f761388a565b5b6143048782880161425f565b91505092959194509250565b6000806040838503121561432757614326613885565b5b600061433585828601613ad2565b925050602061434685828601613ad2565b9150509250929050565b7f4e487b7100000000000000000000000000000000000000000000000000000000600052602260045260246000fd5b6000600282049050600182168061439757607f821691505b6020821081036143aa576143a9614350565b5b50919050565b7f4552433732313a20617070726f76616c20746f2063757272656e74206f776e6560008201527f7200000000000000000000000000000000000000000000000000000000000000602082015250565b600061440c602183613955565b9150614417826143b0565b604082019050919050565b6000602082019050818103600083015261443b816143ff565b9050919050565b7f4552433732313a20617070726f76652063616c6c6572206973206e6f7420746f60008201527f6b656e206f776e6572206f7220617070726f76656420666f7220616c6c000000602082015250565b600061449e603d83613955565b91506144a982614442565b604082019050919050565b600060208201905081810360008301526144cd81614491565b9050919050565b7f4552433732313a2063616c6c6572206973206e6f7420746f6b656e206f776e6560008201527f72206f7220617070726f76656400000000000000000000000000000000000000602082015250565b6000614530602d83613955565b915061453b826144d4565b604082019050919050565b6000602082019050818103600083015261455f81614523565b9050919050565b7f43616c6c6572206973206e6f742061206d696e74657200000000000000000000600082015250565b600061459c601683613955565b91506145a782614566565b602082019050919050565b600060208201905081810360008301526145cb8161458f565b9050919050565b7f5469636b657420646f6573206e6f742065786973740000000000000000000000600082015250565b6000614608601583613955565b9150614613826145d2565b602082019050919050565b60006020820190508181036000830152614637816145fb565b9050919050565b7f5469636b657420616c7265616479207573656400000000000000000000000000600082015250565b6000614674601383613955565b915061467f8261463e565b602082019050919050565b600060208201905081810360008301526146a381614667565b9050919050565b7f43616c6c6572206973206e6f742061646d696e00000000000000000000000000600082015250565b60006146e0601383613955565b91506146eb826146aa565b602082019050919050565b6000602082019050818103600083015261470f816146d3565b9050919050565b7f496e76616c696420726563697069656e74206164647265737300000000000000600082015250565b600061474c601983613955565b915061475782614716565b602082019050919050565b6000602082019050818103600083015261477b8161473f565b9050919050565b7f4576656e74206e616d652063616e6e6f7420626520656d707479000000000000600082015250565b60006147b8601a83613955565b91506147c382614782565b602082019050919050565b600060208201905081810360008301526147e7816147ab565b9050919050565b7f4576656e742064617465206d75737420626520696e2074686520667574757265600082015250565b6000614824602083613955565b915061482f826147ee565b602082019050919050565b6000602082019050818103600083015261485381614817565b9050919050565b7f5072696365206d7573742062652067726561746572207468616e203000000000600082015250565b6000614890601c83613955565b915061489b8261485a565b602082019050919050565b600060208201905081810360008301526148bf81614883565b9050919050565b60008190508160005260206000209050919050565b60006020601f8301049050919050565b600082821b905092915050565b6000600883026149287fffffffffffffffffffffffffffffffffffffffffffffffffffffffffffffffff826148eb565b61493286836148eb565b95508019841693508086168417925050509392505050565b6000819050919050565b600061496f61496a614965846139fc565b61494a565b6139fc565b9050919050565b6000819050919050565b61498983614954565b61499d61499582614976565b8484546148f8565b825550505050565b600090565b6149b26149a5565b6149bd818484614980565b505050565b5b818110156149e1576149d66000826149aa565b6001810190506149c3565b5050565b601f821115614a26576149f7816148c6565b614a00846148db565b81016020851015614a0f578190505b614a23614a1b856148db565b8301826149c2565b50505b505050565b600082821c905092915050565b6000614a4960001984600802614a2b565b1980831691505092915050565b6000614a628383614a38565b9150826002028217905092915050565b614a7b8261394a565b67ffffffffffffffff811115614a9457614a93613ca8565b5b614a9e825461437f565b614aa98282856149e5565b600060209050601f831160018114614adc5760008415614aca578287015190505b614ad48582614a56565b865550614b3c565b601f198416614aea866148c6565b60005b82811015614b1257848901518255600182019150602085019450602081019050614aed565b86831015614b2f5784890151614b2b601f891682614a38565b8355505b6001600288020188555050505b505050505050565b6000604082019050614b596000830185613a91565b8181036020830152614b6b81846139a1565b90509392505050565b7f416363657373436f6e74726f6c3a2063616e206f6e6c792072656e6f756e636560008201527f20726f6c657320666f722073656c660000000000000000000000000000000000602082015250565b6000614bd0602f83613955565b9150614bdb82614b74565b604082019050919050565b60006020820190508181036000830152614bff81614bc3565b9050919050565b7f4e6f20726576656e756520746f20776974686472617700000000000000000000600082015250565b6000614c3c601683613955565b9150614c4782614c06565b602082019050919050565b60006020820190508181036000830152614c6b81614c2f565b9050919050565b600081905092915050565b50565b6000614c8d600083614c72565b9150614c9882614c7d565b600082019050919050565b6000614cae82614c80565b9150819050919050565b7f5472616e73666572206661696c65640000000000000000000000000000000000600082015250565b6000614cee600f83613955565b9150614cf982614cb8565b602082019050919050565b60006020820190508181036000830152614d1d81614ce1565b9050919050565b7f4e487b7100000000000000000000000000000000000000000000000000000000600052603260045260246000fd5b7f4e487b7100000000000000000000000000000000000000000000000000000000600052601160045260246000fd5b6000614d8d826139fc565b91507fffffffffffffffffffffffffffffffffffffffffffffffffffffffffffffffff8203614dbf57614dbe614d53565b5b600182019050919050565b7f4552433732313a20696e76616c696420746f6b656e2049440000000000000000600082015250565b6000614e00601883613955565b9150614e0b82614dca565b602082019050919050565b60006020820190508181036000830152614e2f81614df3565b9050919050565b7f4552433732313a2061646472657373207a65726f206973206e6f74206120766160008201527f6c6964206f776e65720000000000000000000000000000000000000000000000602082015250565b6000614e92602983613955565b9150614e9d82614e36565b604082019050919050565b60006020820190508181036000830152614ec181614e85565b9050919050565b7f5469636b6574206e6f7420617661696c61626c6520666f722073616c65000000600082015250565b6000614efe601d83613955565b9150614f0982614ec8565b602082019050919050565b60006020820190508181036000830152614f2d81614ef1565b9050919050565b7f496e73756666696369656e74207061796d656e74000000000000000000000000600082015250565b6000614f6a601483613955565b9150614f7582614f34565b602082019050919050565b60006020820190508181036000830152614f9981614f5d565b9050919050565b6000614fab826139fc565b9150614fb6836139fc565b9250828203905081811115614fce57614fcd614d53565b5b92915050565b6000614fdf826139fc565b9150614fea836139fc565b925082820190508082111561500257615001614d53565b5b92915050565b600060408201905061501d6000830185613a91565b61502a6020830184613b27565b9392505050565b600081905092915050565b60006150478261394a565b6150518185615031565b9350615061818560208601613966565b80840191505092915050565b6000615079828561503c565b9150615085828461503c565b91508190509392505050565b7f4e6f74207469636b6574206f776e657200000000000000000000000000000000600082015250565b60006150c7601083613955565b91506150d282615091565b602082019050919050565b600060208201905081810360008301526150f6816150ba565b9050919050565b7f4552433732313a207472616e736665722066726f6d20696e636f72726563742060008201527f6f776e6572000000000000000000000000000000000000000000000000000000602082015250565b6000615159602583613955565b9150615164826150fd565b604082019050919050565b600060208201905081810360008301526151888161514c565b9050919050565b7f4552433732313a207472616e7366657220746f20746865207a65726f2061646460008201527f7265737300000000000000000000000000000000000000000000000000000000602082015250565b60006151eb602483613955565b91506151f68261518f565b604082019050919050565b6000602082019050818103600083015261521a816151de565b9050919050565b7f4552433732313a206d696e7420746f20746865207a65726f2061646472657373600082015250565b6000615257602083613955565b915061526282615221565b602082019050919050565b600060208201905081810360008301526152868161524a565b9050919050565b7f4552433732313a20746f6b656e20616c7265616479206d696e74656400000000600082015250565b60006152c3601c83613955565b91506152ce8261528d565b602082019050919050565b600060208201905081810360008301526152f2816152b6565b9050919050565b7f4552433732313a20617070726f766520746f2063616c6c657200000000000000600082015250565b600061532f601983613955565b915061533a826152f9565b602082019050919050565b6000602082019050818103600083015261535e81615322565b9050919050565b7f4552433732313a207472616e7366657220746f206e6f6e20455243373231526560008201527f63656976657220696d706c656d656e7465720000000000000000000000000000602082015250565b60006153c1603283613955565b91506153cc82615365565b604082019050919050565b600060208201905081810360008301526153f0816153b4565b9050919050565b7f4e487b7100000000000000000000000000000000000000000000000000000000600052601260045260246000fd5b7f416363657373436f6e74726f6c3a206163636f756e7420000000000000000000600082015250565b600061545c601783615031565b915061546782615426565b601782019050919050565b7f206973206d697373696e6720726f6c6520000000000000000000000000000000600082015250565b60006154a8601183615031565b91506154b382615472565b601182019050919050565b60006154c98261544f565b91506154d5828561503c565b91506154e08261549b565b91506154ec828461503c565b91508190509392505050565b7f4e487b7100000000000000000000000000000000000000000000000000000000600052603160045260246000fd5b600081519050919050565b600082825260208201905092915050565b600061554e82615527565b6155588185615532565b9350615568818560208601613966565b61557181613990565b840191505092915050565b60006080820190506155916000830187613a91565b61559e6020830186613a91565b6155ab6040830185613b27565b81810360608301526155bd8184615543565b905095945050505050565b6000815190506155d7816138bb565b92915050565b6000602082840312156155f3576155f2613885565b5b6000615601848285016155c8565b91505092915050565b6000615615826139fc565b9150615620836139fc565b925082820261562e816139fc565b9150828204841483151761564557615644614d53565b5b5092915050565b6000615657826139fc565b91506000820361566a57615669614d53565b5b600182039050919050565b7f537472696e67733a20686578206c656e67746820696e73756666696369656e74600082015250565b60006156ab602083613955565b91506156b682615675565b602082019050919050565b600060208201905081810360008301526156da8161569e565b905091905056fea2646970667358221220208885b526eaa2f67c4b98b4a9bb057722cdba6140dcb16b1dafba7c277a4f1e64736f6c634300081c0033",
    "linkReferences": {},
    "deployedLinkReferences": {}
}